:100000000C942A000C9434000C9434000C943400AA
:100010000C9434000C9434000C9434000C94340090
:100020000C9434000C9434000C9434000C94340080
:100030000C9434000C9434000C9434000C94340070
:100040000C9434000C9434000C9434000C94340060
:100050000C94340011241FBECFE5D8E0DEBFCDBF25
:100060000E9436000C94AB000C94000060E875E22E
:1000700080E090E00E945100C89B03C081E00E9494
:100080007F00C99B03C080E00E947F00CA9B03C021
:1000900082E00E947F00CB9BEFCF83E00E947F0035
:1000A000EBCF21B3226021BBDC01CB01880F991F6C
:1000B000AA1FBB1F880F991FAA1FBB1F9C01AD0160
:1000C000220F331F441F551F220F331F441F551F7C
:1000D00060E074E284EF90E00E948900DA01C901D7
:1000E0000197A109B109892F9A2FAB2FBB2780BD9A
:1000F000215029B988E18AB98EE080BD08955D9BC1
:10010000FECF8CB98FE19EE40197F1F700C00000AB
:100110000895A1E21A2EAA1BBB1BFD010DC0AA1F48
:10012000BB1FEE1FFF1FA217B307E407F50720F060
:10013000A21BB30BE40BF50B661F771F881F991FDB
:100140001A9469F760957095809590959B01AC0124
:0A015000BD01CF010895F894FFCF20
:00000001FF
