:100000000C942A000C9434000C9434000C943400AA
:100010000C9434000C9434000C9434000C94340090
:100020000C9434000C9434000C9434000C94340080
:100030000C9434000C9434000C9434000C94340070
:100040000C9434000C9434000C9434000C94340060
:100050000C94340011241FBECFE5D8E0DEBFCDBF25
:100060000E9436000C944E000C9400008FEF87BB6A
:1000700018BA2FEF84E39CE0215080409040E1F7D4
:1000800000C000008FEF88BB2FEF84E39CE021507D
:1000900080409040E1F700C00000EACFF894FFCF25
:00000001FF
