S018000041746D65676133322D50726F6772616D2E7372656353
S11300000C942A000C9447000C9447000C9447006D
S11300100C9447000C9447000C9447000C94470040
S11300200C9447000C9447000C9447000C94470030
S11300300C9447000C9447000C9447000C94470020
S11300400C9447000C9447000C9447000C94470010
S11300500C94470011241FBECFE5D8E0DEBFCDBF0E
S113006010E0A0E6B0E0EEE2F3E002C005900D92ED
S1130070AC37B107D9F720E0ACE7B0E001C01D927E
S1130080AE37B207E1F70E9485010C9495010C94F8
S1130090000098B39F70282F207F922B98BB98B3B1
S11300A09E7F98BB98B3926098BB32E03A95F1F783
S11300B000C098B39D7F98BBE7ECF0E03197F1F76F
S11300C000C0000028B3F0E18F9FC0011124922FDB
S11300D09F70892B88BB88B3826088BB32E03A95D5
S11300E0F1F700C088B38D7F88BB8FE99FE001974B
S11300F0F1F700C00000089598B39F70282F207F67
S1130100922B98BB98B3916098BB98B3926098BBBC
S113011032E03A95F1F700C098B39D7F98BBE7ECC5
S1130120F0E03197F1F700C0000028B3F0E18F9FB1
S1130130C0011124922F9F70892B88BB88B38260E1
S113014088BB32E03A95F1F700C088B38D7F88BB55
S11301508FE99FE00197F1F700C0000008958FEF49
S113016087BB8FE39CE90197F1F700C0000082E0B0
S11301700E94490088E20E9449008CE00E944900E4
S113018081E00E94490082E80E94490008950F938B
S11301901F93CF93DF938C01C0E0D0E003C00E9493
S11301A07C002196F801EC0FFD1F80818111F7CFAF
S11301B0DF91CF911F910F910895CF93DF93EA01BF
S11301C0813031F4862F8F7080680E94490007C007
S11301D0823029F4862F8F70806C0E944900CE01F2
S11301E00E94C700DF91CF91089580EF8ABB8FEF03
S11301F08BBB8BB38F708BBB000089B38F708093E4
S11302007C008F30B1F78FE39CE90197F1F700C0D0
S1130210000089B38F7080937C008F30A1F39FEF2F
S113022029EF80E0915020408040E1F700C00000B9
S113023089B38F7080937C008F3029F38FEE8BBB52
S1130240000089B38F7080937C008F3019F0109276
S11302507D0027C08FED8BBB000089B38F70809326
S11302607C008F3021F081E080937D001AC08FEBF9
S11302708BBB000089B38F7080937C008F3021F09A
S113028082E080937D000DC08FE78BBB000089B3B3
S11302908F7080937C008F3009F4A7CF83E0809324
S11302A07D0080917C008E3059F4E0917D00F0E077
S11302B0EE0FFF1FEE0FFF1FE05AFF4F80810895DE
S11302C08D3059F4E0917D00F0E0EE0FFF1FEE0F4A
S11302D0FF1FE05AFF4F818108958B3059F4E0915C
S11302E07D00F0E0EE0FFF1FEE0FFF1FE05AFF4FFF
S11302F082810895E0917D00F0E0EE0FFF1FEE0F84
S1130300FF1FE05AFF4F838108950E94AF0040E72A
S113031050E060E081E00E94DD0080EC0E94490032
S11103200E94F5000E947C00F8CFF894FFCFF5
S113032E3738392F3435362A3132332D20303D2BA0
S10F033E50726573732061206B657900B8
S9030000FC
