:100000000C942A000C943F000C943F000C943F0089
:100010000C943F000C943F000C943F000C943F0064
:100020000C943F000C943F000C943F000C943F0054
:100030000C943F000C943F000C943F000C943F0044
:100040000C943F000C943F000C943F000C943F0034
:100050000C943F0011241FBECFE5D8E0DEBFCDBF1A
:1000600010E0A0E6B0E0E4E6F1E002C005900D92F9
:10007000A637B107D9F70E94A0000C94B0000C94E9
:10008000000088BB85B38E7F85BB85B38D7F85BB24
:1000900085B3846085BB82E08A95F1F700C085B3A3
:1000A0008B7F85BB8FE697E10197F1F700C00000D9
:1000B000089588BB85B3816085BB85B38D7F85BB83
:1000C00085B3846085BB82E08A95F1F700C085B373
:1000D0008B7F85BB8FEC97E00197F1F700C00000A4
:1000E00008958FEF84BB87BB8FE39CE90197F1F7FD
:1000F00000C0000088E30E9441008CE00E944100A3
:1001000086E00E94410081E00E94410080E80E9458
:10011000410008950F931F93CF93DF938C01C0E0AC
:10012000D0E003C00E9459002196F801EC0FFD1F9A
:1001300080818111F7CFDF91CF911F910F910895A9
:100140000E94710080E690E00E948A0080EC0E948C
:10015000410088E690E00E948A0080E090E00895E7
:04016000F894FFCF41
:1001640048656C6C6F2121004D7920467269656E7B
:060174006473203A29002B
:00000001FF
