:100000000C942A000C9418020C9460020C94A80220
:100010000C9447000C9447000C9447000C94470044
:100020000C9447000C9447000C9447000C94470034
:100030000C9447000C94F8020C9447000C94470071
:100040000C9447000C9447000C9447000C94470014
:100050000C94470011241FBECFE5D8E0DEBFCDBF12
:1000600010E0A0E6B0E0E6E9FAE002C005900D92EB
:10007000AA36B107D9F720E0AAE6B0E001C01D9288
:10008000AE37B207E1F70E9412030C9449050C94B5
:10009000000081B3826081BB81B38E7F81BB10BCC5
:1000A00089E189B988E98AB98EE080BD08955D9BB0
:1000B000FECF8CB98FE19EE40197F1F700C00000FC
:1000C0000895892B39F085B38E7F85BB85B3826017
:1000D00085BB089585B3816085BB85B38D7F85BB66
:1000E000089585B38E7F85BB85B38D7F85BB0895CD
:1000F0008F929F92AF92BF92CF92DF92EF92FF9238
:10010000CF93DF934A015B012FE02ABB019709F4EB
:100110004CC0C0E0D0E08AC083E08BBBEFE3FCE9D9
:100120003197F1F700C0000092E09BBBEFE3FCE9E0
:100130003197F1F700C0000096E09BBBEFE3FCE9CC
:100140003197F1F700C0000094E09BBBEFE3FCE9BE
:100150003197F1F700C000009CE09BBBEFE3FCE9A6
:100160003197F1F700C0000098E09BBBEFE3FCE99A
:100170003197F1F700C0000099E09BBBEFE3FCE989
:100180003197F1F700C0000091E09BBBEFE3FCE981
:100190003197F1F700C000008BBB8FE39CE901971A
:1001A000F1F700C00000219602C0C0E0D0E0BE011F
:1001B0000D2E000C880B990B0E9424046B017C010E
:1001C000C501B4010E94D4049B01AC01C701B60172
:1001D0000E94750388230CF49FCF3DC083E08BBB46
:1001E000EFE3FCE93197F1F700C0000099E09BBB19
:1001F000EFE3FCE93197F1F700C000009CE09BBB06
:10020000EFE3FCE93197F1F700C0000096E09BBBFB
:10021000EFE3FCE93197F1F700C000008BBB8FE3FF
:100220009CE90197F1F700C000002196BE010D2E58
:10023000000C880B990B0E9424046B017C01C50102
:10024000B4010E94D4049B01AC01C701B6010E9415
:10025000750388231CF2DF91CF91FF90EF90DF9020
:10026000CF90BF90AF909F908F90089520EF2ABBC2
:10027000019709F44CC080E090E07EC020E32BBBE6
:10028000EFE3FCE93197F1F700C0000030E23BBB3F
:10029000EFE3FCE93197F1F700C0000030E63BBB2B
:1002A000EFE3FCE93197F1F700C0000030E43BBB1D
:1002B000EFE3FCE93197F1F700C0000030EC3BBB05
:1002C000EFE3FCE93197F1F700C0000030E83BBBF9
:1002D000EFE3FCE93197F1F700C0000030E93BBBE8
:1002E000EFE3FCE93197F1F700C0000030E13BBBE0
:1002F000EFE3FCE93197F1F700C000002BBBEFE31F
:10030000FCE93197F1F700C00000019602C080E0DF
:1003100090E0823391050CF4B1CF8FE39CE9019713
:10032000F1F700C00000089520E32BBBEFE3FCE9E8
:100330003197F1F700C0000030E93BBBEFE3FCE987
:100340003197F1F700C0000030EC3BBBEFE3FCE974
:100350003197F1F700C0000030E63BBBEFE3FCE96A
:100360003197F1F700C000002BBBEFE3FCE93197B8
:10037000F1F700C00000019682339105ACF28FE3E3
:100380009CE90197F1F700C00000089581B38068EF
:1003900081BB81B38B7F81BB8BB780648BBF85B7FB
:1003A000816085BF1FBC089587B3806487BB87B316
:1003B000877F87BB8BB780688BBF85B7846085BF1D
:1003C0001FBC089588B3806488BB80E58A95F1F7E7
:1003D00088B38F7B88BB80916C0090916D000097F3
:1003E000D1F310926D0010926C00089587B380686D
:1003F00087BB87B38B7F87BB8BB780628BBF84B78C
:10040000806484BF1FBC089588B3806888BB80E582
:100410008A95F1F788B38F7788BB80916A009091B5
:100420006B000097D1F310926B0010926A00089550
:100430001F920F920FB60F9211245F936F937F93C9
:100440008F939F93AF93BF938091760090917700A5
:10045000892B49F48EB581608EBD81E090E0909348
:1004600077008093760080917600909177000197D5
:10047000D9F41EBC8CB59DB590937900809378001B
:100480001DBC1CBC80917800909179006AE370E0FB
:100490000E9421056F5F7F4F70936F0060936E0025
:1004A0001092770010927600BF91AF919F918F913B
:1004B0007F916F915F910F900FBE0F901F901895D5
:1004C0001F920F920FB60F9211245F936F937F9339
:1004D0008F939F93AF93BF9380917200909173001D
:1004E000892B49F48EB581608EBD81E090E09093B8
:1004F000770080937600809172009091730001974D
:10050000D9F41EBC8CB59DB5909375008093740092
:100510001DBC1CBC80917400909175006AE370E072
:100520000E9421056F5F7F4F70936D0060936C0098
:100530001092730010927200BF91AF919F918F91B2
:100540007F916F915F910F900FBE0F901F90189544
:100550001F920F920FB60F9211242F933F934F9338
:100560005F936F937F938F939F93AF93BF93EF931B
:10057000FF9304B606FE07C08EB581608EBD84B7BA
:100580008F7B84BF24C01EBC8CB59DB59093710039
:10059000809370006091700070917100072E000CC4
:1005A000880B990B0E94240423E333E349E652E4C9
:1005B0000E947A030E94D4040E94EC0370936B00A3
:1005C00060936A001DBC1CBC84B7806484BFFF912B
:1005D000EF91BF91AF919F918F917F916F915F91BB
:1005E0004F913F912F910F900FBE0F901F90189534
:1005F0001F920F920FB60F9211248F939F938CB17D
:1006000090E090937D0080937C0081E090E0909357
:100610007B0080937A009F918F910F900FBE0F9077
:100620001F90189510927B0010927A000E94C601CC
:100630000E94D4010E94F6010E9449007894849B94
:10064000FECFB59B05C080E690E00E94570004C035
:1006500085E690E00E9457000E94E2018C010E9412
:100660000402EC01B801110F880B990B0E942404BD
:10067000AB01BC0181E090E00E947800BE01DD0F7B
:10068000880B990B0E942404AB01BC0181E090E02F
:100690000E9436010E94E201039724F00E940402A6
:1006A0000397C4F7859B0DC080B3882351F081E088
:1006B00090E00E94610080B38111FDCF0E94710023
:1006C0000DC085990BC080B3811108C080E090E017
:1006D0000E946100859BFECF0E94710080917A008C
:1006E00090917B00892BD1F3FFCF0E945F0408F427
:1006F00081E008950E948E030C949A040E94930452
:1007000058F00E948C0440F029F45F3F29F00C94CB
:10071000830451110C94CE040C9489040E94AB0400
:1007200068F39923B1F3552391F3951B550BBB2720
:10073000AA2762177307840738F09F5F5F4F220F65
:10074000331F441FAA1FA9F335D00E2E3AF0E0E85C
:1007500032D091505040E695001CCAF72BD0FE2FA6
:1007600029D0660F771F881FBB1F2617370748073A
:10077000AB07B0E809F0BB0B802DBF01FF279358F2
:100780005F4F3AF09E3F510578F00C9483040C942F
:10079000CE045F3FE4F3983ED4F386957795679552
:1007A000B795F7959F5FC9F7880F911D9695879527
:1007B00097F90895E1E0660F771F881FBB1F621746
:1007C00073078407BA0720F0621B730B840BBA0B04
:1007D000EE1F88F7E09508950E94F3036894B11125
:1007E0000C94CE0408950E94B30488F09F5798F0AB
:1007F000B92F9927B751B0F0E1F0660F771F881F26
:10080000991F1AF0BA95C9F714C0B13091F00E943F
:10081000CD04B1E008950C94CD04672F782F88277C
:10082000B85F39F0B93FCCF3869577956795B39566
:10083000D9F73EF490958095709561957F4F8F4FD5
:100840009F4F0895E89409C097FB3EF490958095DA
:10085000709561957F4F8F4F9F4F9923A9F0F92F86
:1008600096E9BB279395F695879577956795B79504
:10087000F111F8CFFAF4BB0F11F460FF1BC06F5FEA
:100880007F4F8F4F9F4F16C0882311F096E911C0FC
:10089000772321F09EE8872F762F05C0662371F01D
:1008A00096E8862F70E060E02AF09A95660F771F31
:1008B000881FDAF7880F9695879597F90895990F0D
:1008C0000008550FAA0BE0E8FEEF16161706E8071A
:1008D000F907C0F012161306E407F50798F0621B3B
:1008E000730B840B950B39F40A2661F0232B242B10
:1008F000252B21F408950A2609F4A140A6958FEF2F
:10090000811D811D089597F99F6780E870E060E080
:1009100008959FEF80EC089500240A941616170698
:1009200018060906089500240A94121613061406E0
:1009300005060895092E0394000C11F4882352F043
:10094000BB0F40F4BF2B11F460FF04C06F5F7F4FFB
:100950008F4F9F4F089557FD9058440F551F59F0E2
:100960005F3F71F04795880F97FB991F61F09F3F9C
:1009700079F087950895121613061406551FF2CFC5
:100980004695F1DF08C0161617061806991FF1CF15
:1009900086957105610508940895E894BB2766273C
:1009A0007727CB0197F908950E94B304E8F09E37AA
:1009B000E8F09639B8F49E3848F4672F782F8827E6
:1009C000985FF9CF86957795679593959539D0F38C
:1009D000B62FB1706B0F711D811D20F4879577952F
:1009E000679593950C94F8040C9413050C94CE041D
:1009F000882371F4772321F09850872B762F07C036
:100A0000662311F499270DC09051862B70E060E0A9
:100A10002AF09A95660F771F881FDAF7880F969548
:100A2000879597F908959F3F31F0915020F487956D
:100A300077956795B795880F911D9695879597F946
:100A4000089597FB072E16F4009407D077FD09D080
:100A50000E94350507FC05D03EF4909581959F4F87
:100A60000895709561957F4F0895AA1BBB1B51E1B6
:100A700007C0AA1FBB1FA617B70710F0A61BB70B0E
:100A8000881F991F5A95A9F780959095BC01CD01B3
:060A90000895F894FFCF69
:0A0A960048494748004C4F57000044
:00000001FF
