S01800004D6F746F7220636F6E74726F6C6C65722E7372656397
S11300000C942A000C94BC370C9425380C948E382C
S11300100C9447000C9447000C9447000C94470040
S11300200C9447000C9447000C9447000C94470030
S11300300C9447000C9419390C9447000C94470015
S11300400C9447000C9447000C9447000C94470010
S11300500C94470011241FBECFE5D8E0DEBFCDBF0E
S113006010E0A0E6B0E0EEE9FDE702C005900D92D5
S1130070A637B107D9F720E0A6E7B0E001C01D928A
S1130080AA38B207E1F70E9444390C94CD3E0C948F
S11300900000CF93DF9300D0CDB7DEB79A83898376
S11300A089819A81892B99F085E390E025E330E0FA
S11300B0F90120812E7FFC01208385E390E025E374
S11300C030E0F90120812260FC01208312C085E325
S11300D090E025E330E0F90120812160FC012083D8
S11300E085E390E025E330E0F90120812D7FFC01D8
S11300F0208300000F900F90DF91CF910895CF934C
S1130100DF93CDB7DEB785E390E025E330E0F90176
S113011020812E7FFC01208385E390E025E330E0FD
S1130120F90120812D7FFC0120830000DF91CF9114
S11301300895CF93DF93CDB7DEB78AE390E02FEF36
S1130140FC01208384E390E02FEFFC012083000076
S1130150DF91CF910895CF92DF92EF92FF920F93A8
S11301601F93CF93DF93CDB7DEB7C05DD1090FB630
S1130170F894DEBF0FBECDBF9E0125533F4FF9015A
S113018091838083CE0183539F4FFC01408351832D
S1130190628373838AE090E09E838D83CE018553CE
S11301A09F4FFC0180819181019709F016C71A8243
S11301B01982EFC68BE390E023E0FC0120838D815C
S11301C09E81092E000CAA0BBB0BBC01CD010E9421
S11301D0363DDC01CB018B879C87AD87BE878E01C2
S11301E001571F4F20E030E04AE755E46B857C85DA
S11301F08D859E850E94EB3DDC01CB01F801808357
S11302009183A283B383CE0181579F4F20E030E0D6
S113021040E85FE3FC0160817181828193810E94E7
S1130220873C88234CF4CE018D569F4F21E030E06B
S1130230FC013183208369C0CE0181579F4F20E0A8
S11302403FEF4FE757E4FC01608171818281938124
S11302500E94E63D18160CF046C020E030E040E273
S113026051E46B857C858D859E850E94EB3DDC0188
S1130270CB018E010D561F4FBC01CD010E94053DDF
S1130280DC01CB01F8019183808324C0CE018B561D
S11302909F4F20E931E0FC0131832083CE018B564E
S11302A09F4FFC01808191810197F1F79E012B56AC
S11302B03F4FF90191838083CE018D569F4F9E015C
S11302C02D563F4FF9012081318121503109FC0124
S11302D031832083CE018D569F4FFC018081918113
S11302E0892BA1F62CC08E010D561F4FCE018157CC
S11302F09F4FFC0160817181828193810E94053D41
S1130300DC01CB01F80191838083CE0189569F4F94
S11303109E012D563F4FF90120813181FC0131832B
S11303202083CE0189569F4FFC01808191810197E2
S1130330F1F79E0129563F4FF901918380838BE3A6
S113034090E022E0FC0120838D819E81092E000C27
S1130350AA0BBB0BBC01CD010E94363DDC01CB01D5
S11303608F87988BA98BBA8B8E010B571F4F20E078
S113037030E04AE755E46F85788989899A890E9433
S1130380EB3DDC01CB01F80180839183A283B3832D
S1130390CE018B579F4F20E030E040E85FE3FC0143
S11303A060817181828193810E94873C88234CF40F
S11303B0CE0187579F4F21E030E0FC013183208339
S11303C069C0CE018B579F4F20E03FEF4FE757E4C2
S11303D0FC0160817181828193810E94E63D18163F
S11303E00CF046C020E030E040E251E46F857889AB
S11303F089899A890E94EB3DDC01CB018E01075764
S11304001F4FBC01CD010E94053DDC01CB01F80169
S11304109183808324C0CE0185579F4F20E931E02A
S1130420FC0131832083CE0185579F4FFC018081DD
S113043091810197F1F79E0125573F4FF90191836F
S11304408083CE0187579F4F9E0127573F4FF90165
S11304502081318121503109FC0131832083CE0177
S113046087579F4FFC0180819181892BA1F62CC075
S11304708E0107571F4FCE018B579F4FFC016081A0
S11304807181828193810E94053DDC01CB01F801D9
S113049091838083CE0183579F4F9E0127573F4FFF
S11304A0F90120813181FC0131832083CE018357FE
S11304B09F4FFC01808191810197F1F79E012357A1
S11304C03F4FF901918380838BE390E026E0FC01A8
S11304D020838D819E81092E000CAA0BBB0BBC01CD
S11304E0CD010E94363DDC01CB018B8B9C8BAD8B07
S11304F0BE8B8E0105581F4F20E030E04AE755E4DB
S11305006B897C898D899E890E94EB3DDC01CB013E
S1130510F80180839183A283B383CE0185589F4FD2
S113052020E030E040E85FE3FC016081718182817A
S113053093810E94873C88234CF4CE0181589F4FBD
S113054021E030E0FC013183208369C0CE0185586D
S11305509F4F20E03FEF4FE757E4FC01608171813A
S1130560828193810E94E63D18160CF046C020E07B
S113057030E040E251E46B897C898D899E890E9438
S1130580EB3DDC01CB018E0101581F4FBC01CD01B5
S11305900E94053DDC01CB01F8019183808324C0D6
S11305A0CE018F579F4F20E931E0FC013183208336
S11305B0CE018F579F4FFC01808191810197F1F704
S11305C09E012F573F4FF90191838083CE018158BB
S11305D09F4F9E0121583F4FF901208131812150C5
S11305E03109FC0131832083CE0181589F4FFC01E6
S11305F080819181892BA1F62CC08E0101581F4F57
S1130600CE0185589F4FFC01608171818281938165
S11306100E94053DDC01CB01F80191838083CE016A
S11306208D579F4F9E0121583F4FF9012081318101
S1130630FC0131832083CE018D579F4FFC018081C3
S113064091810197F1F79E012D573F4FF901918355
S113065080838BE390E024E0FC0120838D819E81E4
S1130660092E000CAA0BBB0BBC01CD010E94363D28
S1130670DC01CB018F8B988FA98FBA8F8E010F5815
S11306801F4F20E030E04AE755E46F89788D898D6B
S11306909A8D0E94EB3DDC01CB01F80180839183AC
S11306A0A283B383CE018F589F4F20E030E040E80F
S11306B05FE3FC0160817181828193810E94873CA8
S11306C088234CF4CE018B589F4F21E030E0FC018D
S11306D03183208369C0CE018F589F4F20E03FEFC4
S11306E04FE757E4FC0160817181828193810E940C
S11306F0E63D18160CF046C020E030E040E251E43C
S11307006F89788D898D9A8D0E94EB3DDC01CB0138
S11307108E010B581F4FBC01CD010E94053DDC0129
S1130720CB01F8019183808324C0CE0189589F4F67
S113073020E931E0FC0131832083CE0189589F4FA9
S1130740FC01808191810197F1F79E0129583F4F67
S1130750F90191838083CE018B589F4F9E012B58C2
S11307603F4FF9012081318121503109FC0131834E
S11307702083CE018B589F4FFC0180819181892B6E
S1130780A1F62CC08E010B581F4FCE018F589F4FDE
S1130790FC0160817181828193810E94053DDC01AD
S11307A0CB01F80191838083CE0187589F4F9E012E
S11307B02B583F4FF90120813181FC013183208383
S11307C0CE0187589F4FFC01808191810197F1F7F9
S11307D09E0127583F4FF901918380838BE390E07A
S11307E02CE0FC0120838D819E81092E000CAA0B34
S11307F0BB0BBC01CD010E94363DDC01CB018B8FCC
S11308009C8FAD8FBE8F8E0109591F4F20E030E0C1
S11308104AE755E46B8D7C8D8D8D9E8D0E94EB3D5A
S1130820DC01CB01F80180839183A283B383CE01E1
S113083089599F4F20E030E040E85FE3FC0160818C
S11308407181828193810E94873C88234CF4CE017C
S113085085599F4F21E030E0FC013183208369C03A
S1130860CE0189599F4F20E03FEF4FE757E4FC0149
S113087060817181828193810E94E63D18160CF09B
S113088046C020E030E040E251E46B8D7C8D8D8DDC
S11308909E8D0E94EB3DDC01CB018E0105591F4F5B
S11308A0BC01CD010E94053DDC01CB01F80191831F
S11308B0808324C0CE0183599F4F20E931E0FC019D
S11308C031832083CE0183599F4FFC018081918124
S11308D00197F1F79E0123593F4FF90191838083DA
S11308E0CE0185599F4F9E0125593F4FF901208123
S11308F0318121503109FC0131832083CE01855996
S11309009F4FFC0180819181892BA1F62CC08E011F
S113091005591F4FCE0189599F4FFC016081718198
S1130920828193810E94053DDC01CB01F801918312
S11309308083CE0181599F4F9E0125593F4FF90174
S113094020813181FC0131832083CE0181599F4F65
S1130950FC01808191810197F1F79E0121593F4F5C
S1130960F901918380838BE390E028E0FC012083EC
S11309708D819E81092E000CAA0BBB0BBC01CD01FD
S11309800E94363DDC01CB018F8F98A3A9A3BAA3A3
S11309908E01035A1F4F20E030E04AE755E46F8D83
S11309A078A189A19AA10E94EB3DDC01CB01F80159
S11309B080839183A283B383CE01835A9F4F20E027
S11309C030E040E85FE3FC016081718182819381C2
S11309D00E94873C88234CF4CE018F599F4F21E01D
S11309E030E0FC013183208369C0CE01835A9F4FDC
S11309F020E03FEF4FE757E4FC0160817181828181
S1130A0093810E94E63D18160CF046C020E030E0C9
S1130A1040E251E46F8D78A189A19AA10E94EB3D37
S1130A20DC01CB018E010F591F4FBC01CD010E9487
S1130A30053DDC01CB01F8019183808324C0CE0104
S1130A408D599F4F20E931E0FC0131832083CE0191
S1130A508D599F4FFC01808191810197F1F79E018F
S1130A602D593F4FF90191838083CE018F599F4FB8
S1130A709E012F593F4FF9012081318121503109C5
S1130A80FC0131832083CE018F599F4FFC0180816B
S1130A909181892BA1F62CC08E010F591F4FCE01D5
S1130AA0835A9F4FFC0160817181828193810E94EE
S1130AB0053DDC01CB01F80191838083CE018B5984
S1130AC09F4F9E012F593F4FF90120813181FC0135
S1130AD031832083CE018B599F4FFC01808191810A
S1130AE00197F1F79E012B593F4FF90191838083C0
S1130AF08BE390E029E0FC0120838D819E81092E07
S1130B00000CAA0BBB0BBC01CD010E94363DDC01DD
S1130B10CB018BA39CA3ADA3BEA38E010D5A1F4F83
S1130B2020E030E04AE755E46BA17CA18DA19EA1B1
S1130B300E94EB3DDC01CB01F80180839183A28309
S1130B40B383CE018D5A9F4F20E030E040E85FE34D
S1130B50FC0160817181828193810E94873C88239A
S1130B604CF4CE01895A9F4F21E030E0FC013183DF
S1130B70208369C0CE018D5A9F4F20E03FEF4FE79D
S1130B8057E4FC0160817181828193810E94E63D7A
S1130B9018160CF046C020E030E040E251E46BA1AE
S1130BA07CA18DA19EA10E94EB3DDC01CB018E01B5
S1130BB0095A1F4FBC01CD010E94053DDC01CB0148
S1130BC0F8019183808324C0CE01875A9F4F20E986
S1130BD031E0FC0131832083CE01875A9F4FFC0111
S1130BE0808191810197F1F79E01275A3F4FF901C6
S1130BF091838083CE01895A9F4F9E01295A3F4F8A
S1130C00F9012081318121503109FC013183208394
S1130C10CE01895A9F4FFC0180819181892BA1F6D5
S1130C202CC08E01095A1F4FCE018D5A9F4FFC01D3
S1130C3060817181828193810E94053DDC01CB0139
S1130C40F80191838083CE01855A9F4F9E01295AD2
S1130C503F4FF90120813181FC0131832083CE0192
S1130C60855A9F4FFC01808191810197F1F79E0184
S1130C70255A3F4FF901918380838BE390E021E073
S1130C80FC0120838D819E81092E000CAA0BBB0BD5
S1130C90BC01CD010E94363DDC01CB018FA398A796
S1130CA0A9A7BAA78E01075B1F4F20E030E04AE7EF
S1130CB055E46FA178A589A59AA50E94EB3DDC01B6
S1130CC0CB01F80180839183A283B383CE01875B38
S1130CD09F4F20E030E040E85FE3FC0160817181D8
S1130CE0828193810E94873C88234CF4CE01835BEC
S1130CF09F4F21E030E0FC013183208369C0CE01A5
S1130D00875B9F4F20E03FEF4FE757E4FC01608192
S1130D107181828193810E94E63D18160CF046C0D1
S1130D2020E030E040E251E46FA178A589A59AA5BE
S1130D300E94EB3DDC01CB018E01035B1F4FBC0124
S1130D40CD010E94053DDC01CB01F8019183808334
S1130D5024C0CE01815B9F4F20E931E0FC01318347
S1130D602083CE01815B9F4FFC018081918101979B
S1130D70F1F79E01215B3F4FF90191838083CE01FE
S1130D80835B9F4F9E01235B3F4FF901208131819B
S1130D9021503109FC0131832083CE01835B9F4FB5
S1130DA0FC0180819181892BA1F62CC08E01035B0B
S1130DB01F4FCE01875B9F4FFC016081718182814F
S1130DC093810E94053DDC01CB01F801918380836E
S1130DD0CE018F5A9F4F9E01235B3F4FF901208123
S1130DE03181FC0131832083CE018F5A9F4FFC0156
S1130DF0808191810197F1F79E012F5A3F4FF901AC
S1130E00918380838BE390E023E0FC0120838D8138
S1130E109E81092E000CAA0BBB0BBC01CD010E94C4
S1130E20363DDC01CB018BAF9CAFADAFBEAF8E01C5
S1130E30015C1F4F20E030E04AE755E46BAD7CAD28
S1130E408DAD9EAD0E94EB3DDC01CB01F8018083AA
S1130E509183A283B383CE01CF9620E030E040E8B3
S1130E605FE3FC0160817181828193810E94873CF0
S1130E7088234CF4CE018D5B9F4F21E030E0FC01D0
S1130E803183208367C0CE01CF9620E03FEF4FE748
S1130E9057E4FC0160817181828193810E94E63D67
S1130EA018160CF046C020E030E040E251E46BAD8F
S1130EB07CAD8DAD9EAD0E94EB3DDC01CB018E017E
S1130EC00D5B1F4FBC01CD010E94053DDC01CB0130
S1130ED0F8019183808324C0CE018B5B9F4F20E96E
S1130EE031E0FC0131832083CE018B5B9F4FFC01F9
S1130EF0808191810197F1F79E012B5B3F4FF901AE
S1130F0091838083CE018D5B9F4F9E012D5B3F4F6C
S1130F10F9012081318121503109FC013183208381
S1130F20CE018D5B9F4FFC0180819181892BA1F6BD
S1130F302BC08E010D5B1F4FCE01CF96FC0160814B
S1130F407181828193810E94053DDC01CB01F8010E
S1130F5091838083CE01895B9F4F9E012D5B3F4F20
S1130F60F90120813181FC0131832083CE01895B29
S1130F709F4FFC01808191810197F1F79E01295BCC
S1130F803F4FF9019183808389819A8101969A83E5
S1130F90898389819A81092E000CAA0BBB0BBC01A1
S1130FA0CD010E94363D6B017C01CE0183539F4FDE
S1130FB0FC0180819181A281B381BC01CD010E9499
S1130FC0583EDC01CB019C01AD01C701B6010E9472
S1130FD0873C88230CF4EEC804C41C821B82DEC345
S1130FE08BE390E023E0FC0120838D819E81092E18
S1130FF0000CAA0BBB0BBC01CD010E94363DDC01E9
S1131000CB018BA79CA7ADA7BEA78E010F531F4F83
S113101020E030E04AE755E46BA57CA58DA59EA5AC
S11310200E94EB3DDC01CB01F80180839183A28314
S1131030B383CE018F539F4F20E030E040E85FE35D
S1131040FC0160817181828193810E94873C8823A5
S11310504CF4CE018B539F4F21E030E0FC013183EF
S1131060208369C0CE018F539F4F20E03FEF4FE7AD
S113107057E4FC0160817181828193810E94E63D85
S113108018160CF046C020E030E040E251E46BA5B5
S11310907CA58DA59EA50E94EB3DDC01CB018E01B4
S11310A00B531F4FBC01CD010E94053DDC01CB0158
S11310B0F8019183808324C0CE0189539F4F20E996
S11310C031E0FC0131832083CE0189539F4FFC0121
S11310D0808191810197F1F79E0129533F4FF901D6
S11310E091838083CE018B539F4F9E012B533F4F9F
S11310F0F9012081318121503109FC0131832083A0
S1131100CE018B539F4FFC0180819181892BA1F6E5
S11311102CC08E010B531F4FCE018F539F4FFC01E8
S113112060817181828193810E94053DDC01CB0144
S1131130F80191838083CE0187539F4F9E012B53E7
S11311403F4FF90120813181FC0131832083CE019D
S113115087539F4FFC01808191810197F1F79E0194
S113116027533F4FF901918380838BE390E029E07B
S1131170FC0120838D819E81092E000CAA0BBB0BE0
S1131180BC01CD010E94363DDC01CB018FA798AB99
S1131190A9ABBAAB8E0109541F4F20E030E04AE7F7
S11311A055E46FA578A989A99AA90E94EB3DDC01B1
S11311B0CB01F80180839183A283B383CE01895448
S11311C09F4F20E030E040E85FE3FC0160817181E3
S11311D0828193810E94873C88234CF4CE018554FC
S11311E09F4F21E030E0FC013183208369C0CE01B0
S11311F089549F4F20E03FEF4FE757E4FC016081A3
S11312007181828193810E94E63D18160CF046C0DC
S113121020E030E040E251E46FA578A989A99AA9B9
S11312200E94EB3DDC01CB018E0105541F4FBC0134
S1131230CD010E94053DDC01CB01F801918380833F
S113124024C0CE0183549F4F20E931E0FC01318357
S11312502083CE0183549F4FFC01808191810197AB
S1131260F1F79E0123543F4FF90191838083CE010E
S113127085549F4F9E0125543F4FF90120813181B0
S113128021503109FC0131832083CE0185549F4FC5
S1131290FC0180819181892BA1F62CC08E0105541B
S11312A01F4FCE0189549F4FFC016081718182815F
S11312B093810E94053DDC01CB01F8019183808379
S11312C0CE0181549F4F9E0125543F4FF901208147
S11312D03181FC0131832083CE0181549F4FFC0175
S11312E0808191810197F1F79E0121543F4FF901CB
S11312F0918380838BE390E02CE0FC0120838D813B
S11313009E81092E000CAA0BBB0BBC01CD010E94CF
S1131310363DDC01CB018BAB9CABADABBEAB8E01E0
S113132003551F4F20E030E04AE755E46BA97CA940
S11313308DA99EA90E94EB3DDC01CB01F8018083BD
S11313409183A283B383CE0183559F4F20E030E085
S113135040E85FE3FC0160817181828193810E9496
S1131360873C88234CF4CE018F549F4F21E030E01A
S1131370FC013183208369C0CE0183559F4F20E057
S11313803FEF4FE757E4FC016081718182819381D3
S11313900E94E63D18160CF046C020E030E040E222
S11313A051E46BA97CA98DA99EA90E94EB3DDC01A7
S11313B0CB018E010F541F4FBC01CD010E94053D8E
S11313C0DC01CB01F8019183808324C0CE018D54CC
S11313D09F4F20E931E0FC0131832083CE018D54FD
S11313E09F4FFC01808191810197F1F79E012D545B
S11313F03F4FF90191838083CE018F549F4F9E010B
S11314002F543F4FF9012081318121503109FC01D2
S113141031832083CE018F549F4FFC0180819181C1
S1131420892BA1F62CC08E010F541F4FCE0183557A
S11314309F4FFC0160817181828193810E94053DEF
S1131440DC01CB01F80191838083CE018B549F4F43
S11314509E012F543F4FF90120813181FC013183DA
S11314602083CE018B549F4FFC0180819181019791
S1131470F1F79E012B543F4FF901918380838BE355
S113148090E026E0FC0120838D819E81092E000CD2
S1131490AA0BBB0BBC01CD010E94363DDC01CB0184
S11314A08FAB98AFA9AFBAAF8E010D551F4F20E097
S11314B030E04AE755E46FA978AD89AD9AAD0E9452
S11314C0EB3DDC01CB01F80180839183A283B383DC
S11314D0CE018D559F4F20E030E040E85FE3FC01F2
S11314E060817181828193810E94873C88234CF4BE
S11314F0CE0189559F4F21E030E0FC0131832083E8
S113150069C0CE018D559F4F20E03FEF4FE757E470
S1131510FC0160817181828193810E94E63D1816ED
S11315200CF046C020E030E040E251E46FA978AD11
S113153089AD9AAD0E94EB3DDC01CB018E010955CA
S11315401F4FBC01CD010E94053DDC01CB01F80118
S11315509183808324C0CE0187559F4F20E931E0D9
S1131560FC0131832083CE0187559F4FFC0180818C
S113157091810197F1F79E0127553F4FF90191831E
S11315808083CE0189559F4F9E0129553F4FF90114
S11315902081318121503109FC0131832083CE0126
S11315A089559F4FFC0180819181892BA1F62CC024
S11315B08E0109551F4FCE018D559F4FFC0160814F
S11315C07181828193810E94053DDC01CB01F80188
S11315D091838083CE0185559F4F9E0129553F4FAE
S11315E0F90120813181FC0131832083CE018555AD
S11315F09F4FFC01808191810197F1F79E01255550
S11316003F4FF901918380838BE390E023E0FC0159
S113161020838D819E81092E000CAA0BBB0BBC017B
S1131620CD010E94363DDC01CB018F839887A987C9
S1131630BA878E0107561F4F20E030E04AE755E491
S11316406F81788589859A850E94EB3DDC01CB0109
S1131650F80180839183A283B383CE0187569F4F81
S113166020E030E040E85FE3FC0160817181828129
S113167093810E94873C88234CF4CE0183569F4F6C
S113168021E030E0FC013183208369C0CE0187561C
S11316909F4F20E03FEF4FE757E4FC0160817181E9
S11316A0828193810E94E63D18160CF046C020E02A
S11316B030E040E251E46F81788589859A850E9403
S11316C0EB3DDC01CB018E0103561F4FBC01CD0164
S11316D00E94053DDC01CB01F8019183808324C085
S11316E0CE0181569F4F20E931E0FC0131832083F4
S11316F0CE0181569F4FFC01808191810197F1F7C2
S11317009E0121563F4FF90191838083CE01835678
S11317109F4F9E0123563F4FF90120813181215073
S11317203109FC0131832083CE0183569F4FFC0194
S113173080819181892BA1F62CC08E0103561F4F05
S1131740CE0187569F4FFC01608171818281938114
S11317500E94053DDC01CB01F80191838083CE0119
S11317608F559F4F9E0123563F4FF90120813181B0
S1131770FC0131832083CE018F559F4FFC01808172
S113178091810197F1F79E012F553F4FF901918304
S113179080838B819C8101969C838B838B819C812C
S11317A0092E000CAA0BBB0BBC01CD010E94363DD7
S11317B06B017C01CE0183539F4FFC018081918199
S11317C0A281B381BC01CD010E94583EDC01CB0152
S11317D09C01AD01C701B6010E94873C88230CF42B
S11317E0FFCB0000C053DF4F0FB6F894DEBF0FBE2F
S11317F0CDBFDF91CF911F910F91FF90EF90DF90BC
S1131800CF9008950F931F93CF93DF93CDB7DEB797
S1131810CC5ED1090FB6F894DEBF0FBECDBF9E01DA
S113182029513F4FF90191838083CE0187519F4F06
S1131830FC0140835183628373838AE090E09E833A
S11318408D83CE0189519F4FFC0180819181019745
S113185009F0BFC71A821982FEC68BE390E020E329
S1131860FC0120838D819E81092E000CAA0BBB0BE9
S1131870BC01CD010E94363DDC01CB018B879C87E6
S1131880AD87BE878E0109561F4F20E030E04AE73E
S113189055E46B857C858D859E850E94EB3DDC013E
S11318A0CB01F80180839183A283B383CE0189564F
S11318B09F4F20E030E040E85FE3FC0160817181EC
S11318C0828193810E94873C88234CF4CE01855603
S11318D09F4F21E030E0FC013183208369C0CE01B9
S11318E089569F4F20E03FEF4FE757E4FC016081AA
S11318F07181828193810E94E63D18160CF046C0E6
S113190020E030E040E251E46B857C858D859E8546
S11319100E94EB3DDC01CB018E0105561F4FBC013B
S1131920CD010E94053DDC01CB01F8019183808348
S113193024C0CE0183569F4F20E931E0FC0131835E
S11319402083CE0183569F4FFC01808191810197B2
S1131950F1F79E0123563F4FF90191838083CE0115
S113196085569F4F9E0125563F4FF90120813181B5
S113197021503109FC0131832083CE0185569F4FCC
S1131980FC0180819181892BA1F62CC08E01055622
S11319901F4FCE0189569F4FFC0160817181828166
S11319A093810E94053DDC01CB01F8019183808382
S11319B0CE0181569F4F9E0125563F4FF90120814C
S11319C03181FC0131832083CE0181569F4FFC017C
S11319D0808191810197F1F79E0121563F4FF901D2
S11319E0918380838BE390E020E2FC0120838D814E
S11319F09E81092E000CAA0BBB0BBC01CD010E94D9
S1131A00363DDC01CB018F87988BA98BBA8B8E0175
S1131A1003571F4F20E030E04AE755E46F8578898B
S1131A2089899A890E94EB3DDC01CB01F80180830E
S1131A309183A283B383CE0183579F4F20E030E08C
S1131A4040E85FE3FC0160817181828193810E949F
S1131A50873C88234CF4CE018F569F4F21E030E021
S1131A60FC013183208369C0CE0183579F4F20E05E
S1131A703FEF4FE757E4FC016081718182819381DC
S1131A800E94E63D18160CF046C020E030E040E22B
S1131A9051E46F85788989899A890E94EB3DDC013C
S1131AA0CB018E010F561F4FBC01CD010E94053D95
S1131AB0DC01CB01F8019183808324C0CE018D56D3
S1131AC09F4F20E931E0FC0131832083CE018D5604
S1131AD09F4FFC01808191810197F1F79E012D5662
S1131AE03F4FF90191838083CE018F569F4F9E0112
S1131AF02F563F4FF9012081318121503109FC01DA
S1131B0031832083CE018F569F4FFC0180819181C8
S1131B10892BA1F62CC08E010F561F4FCE0183577F
S1131B209F4FFC0160817181828193810E94053DF8
S1131B30DC01CB01F80191838083CE018B569F4F4A
S1131B409E012F563F4FF90120813181FC013183E1
S1131B502083CE018B569F4FFC0180819181019798
S1131B60F1F79E012B563F4FF901918380838BE35C
S1131B7090E020E6FC0120838D819E81092E000CDB
S1131B80AA0BBB0BBC01CD010E94363DDC01CB018D
S1131B908B8B9C8BAD8BBE8B8E010D571F4F20E022
S1131BA030E04AE755E46B897C898D899E890E94DF
S1131BB0EB3DDC01CB01F80180839183A283B383E5
S1131BC0CE018D579F4F20E030E040E85FE3FC01F9
S1131BD060817181828193810E94873C88234CF4C7
S1131BE0CE0189579F4F21E030E0FC0131832083EF
S1131BF069C0CE018D579F4F20E03FEF4FE757E478
S1131C00FC0160817181828193810E94E63D1816F6
S1131C100CF046C020E030E040E251E46B897C895E
S1131C208D899E890E94EB3DDC01CB018E01095711
S1131C301F4FBC01CD010E94053DDC01CB01F80121
S1131C409183808324C0CE0187579F4F20E931E0E0
S1131C50FC0131832083CE0187579F4FFC01808193
S1131C6091810197F1F79E0127573F4FF901918325
S1131C708083CE0189579F4F9E0129573F4FF90119
S1131C802081318121503109FC0131832083CE012F
S1131C9089579F4FFC0180819181892BA1F62CC02B
S1131CA08E0109571F4FCE018D579F4FFC01608154
S1131CB07181828193810E94053DDC01CB01F80191
S1131CC091838083CE0185579F4F9E0129573F4FB3
S1131CD0F90120813181FC0131832083CE018557B4
S1131CE09F4FFC01808191810197F1F79E01255757
S1131CF03F4FF901918380838BE390E020E4FC0162
S1131D0020838D819E81092E000CAA0BBB0BBC0184
S1131D10CD010E94363DDC01CB018F8B988FA98FBA
S1131D20BA8F8E0107581F4F20E030E04AE755E490
S1131D306F89788D898D9A8D0E94EB3DDC01CB01F2
S1131D40F80180839183A283B383CE0187589F4F88
S1131D5020E030E040E85FE3FC0160817181828132
S1131D6093810E94873C88234CF4CE0183589F4F73
S1131D7021E030E0FC013183208369C0CE01875823
S1131D809F4F20E03FEF4FE757E4FC0160817181F2
S1131D90828193810E94E63D18160CF046C020E033
S1131DA030E040E251E46F89788D898D9A8D0E94EC
S1131DB0EB3DDC01CB018E0103581F4FBC01CD016B
S1131DC00E94053DDC01CB01F8019183808324C08E
S1131DD0CE0181589F4F20E931E0FC0131832083FB
S1131DE0CE0181589F4FFC01808191810197F1F7C9
S1131DF09E0121583F4FF90191838083CE0183587E
S1131E009F4F9E0123583F4FF9012081318121507A
S1131E103109FC0131832083CE0183589F4FFC019B
S1131E2080819181892BA1F62CC08E0103581F4F0C
S1131E30CE0187589F4FFC0160817181828193811B
S1131E400E94053DDC01CB01F80191838083CE0122
S1131E508F579F4F9E0123583F4FF90120813181B5
S1131E60FC0131832083CE018F579F4FFC01808179
S1131E7091810197F1F79E012F573F4FF90191830B
S1131E8080838BE390E020ECFC0120838D819E8194
S1131E90092E000CAA0BBB0BBC01CD010E94363DE0
S1131EA0DC01CB018B8F9C8FAD8FBE8F8E010159CE
S1131EB01F4F20E030E04AE755E46B8D7C8D8D8D1B
S1131EC09E8D0E94EB3DDC01CB01F8018083918360
S1131ED0A283B383CE0181599F4F20E030E040E8D4
S1131EE05FE3FC0160817181828193810E94873C60
S1131EF088234CF4CE018D589F4F21E030E0FC0143
S1131F003183208369C0CE0181599F4F20E03FEF88
S1131F104FE757E4FC0160817181828193810E94C3
S1131F20E63D18160CF046C020E030E040E251E4F3
S1131F306B8D7C8D8D8D9E8D0E94EB3DDC01CB01E4
S1131F408E010D581F4FBC01CD010E94053DDC01DF
S1131F50CB01F8019183808324C0CE018B589F4F1D
S1131F6020E931E0FC0131832083CE018B589F4F5F
S1131F70FC01808191810197F1F79E012B583F4F1D
S1131F80F90191838083CE018D589F4F9E012D5876
S1131F903F4FF9012081318121503109FC01318306
S1131FA02083CE018D589F4FFC0180819181892B24
S1131FB0A1F62CC08E010D581F4FCE0181599F4FA1
S1131FC0FC0160817181828193810E94053DDC0165
S1131FD0CB01F80191838083CE0189589F4F9E01E4
S1131FE02D583F4FF90120813181FC013183208339
S1131FF0CE0189589F4FFC01808191810197F1F7AF
S11320009E0129583F4FF901918380838BE390E02F
S113201020E8FC0120838D819E81092E000CAA0BEF
S1132020BB0BBC01CD010E94363DDC01CB018F8F7F
S113203098A3A9A3BAA38E010B591F4F20E030E047
S11320404AE755E46F8D78A189A19AA10E94EB3DDE
S1132050DC01CB01F80180839183A283B383CE0199
S11320608B599F4F20E030E040E85FE3FC01608142
S11320707181828193810E94873C88234CF4CE0134
S113208087599F4F21E030E0FC013183208369C0F0
S1132090CE018B599F4F20E03FEF4FE757E4FC01FF
S11320A060817181828193810E94E63D18160CF053
S11320B046C020E030E040E251E46F8D78A189A170
S11320C09AA10E94EB3DDC01CB018E0107591F4F01
S11320D0BC01CD010E94053DDC01CB01F8019183D7
S11320E0808324C0CE0185599F4F20E931E0FC0153
S11320F031832083CE0185599F4FFC0180819181DA
S11321000197F1F79E0125593F4FF901918380838F
S1132110CE0187599F4F9E0127593F4FF9012081D6
S1132120318121503109FC0131832083CE0187594B
S11321309F4FFC0180819181892BA1F62CC08E01D7
S113214007591F4FCE018B599F4FFC01608171814C
S1132150828193810E94053DDC01CB01F8019183CA
S11321608083CE0183599F4F9E0127593F4FF90128
S113217020813181FC0131832083CE0183599F4F1B
S1132180FC01808191810197F1F79E0123593F4F12
S1132190F901918380838BE390E020E9FC012083A3
S11321A08D819E81092E000CAA0BBB0BBC01CD01B5
S11321B00E94363DDC01CB018BA39CA3ADA3BEA33F
S11321C08E01055A1F4F20E030E04AE755E46BA129
S11321D07CA18DA19EA10E94EB3DDC01CB01F80105
S11321E080839183A283B383CE01855A9F4F20E0DD
S11321F030E040E85FE3FC0160817181828193817A
S11322000E94873C88234CF4CE01815A9F4F21E0E1
S113221030E0FC013183208369C0CE01855A9F4F91
S113222020E03FEF4FE757E4FC0160817181828138
S113223093810E94E63D18160CF046C020E030E081
S113224040E251E46BA17CA18DA19EA10E94EB3DD3
S1132250DC01CB018E01015A1F4FBC01CD010E944C
S1132260053DDC01CB01F8019183808324C0CE01BC
S11322708F599F4F20E931E0FC0131832083CE0147
S11322808F599F4FFC01808191810197F1F79E0145
S11322902F593F4FF90191838083CE01815A9F4F7B
S11322A09E01215A3F4FF90120813181215031098A
S11322B0FC0131832083CE01815A9F4FFC01808130
S11322C09181892BA1F62CC08E01015A1F4FCE019A
S11322D0855A9F4FFC0160817181828193810E94A4
S11322E0053DDC01CB01F80191838083CE018D593A
S11322F09F4F9E01215A3F4FF90120813181FC01FA
S113230031832083CE018D599F4FFC0180819181BF
S11323100197F1F79E012D593F4FF9019183808375
S11323208BE390E020E1FC0120838D819E81092EC6
S1132330000CAA0BBB0BBC01CD010E94363DDC0195
S1132340CB018FA398A7A9A7BAA78E010F5A1F4F35
S113235020E030E04AE755E46FA178A589A59AA565
S11323600E94EB3DDC01CB01F80180839183A283C1
S1132370B383CE018F5A9F4F20E030E040E85FE303
S1132380FC0160817181828193810E94873C882352
S11323904CF4CE018B5A9F4F21E030E0FC01318395
S11323A0208369C0CE018F5A9F4F20E03FEF4FE753
S11323B057E4FC0160817181828193810E94E63D32
S11323C018160CF046C020E030E040E251E46FA162
S11323D078A589A59AA50E94EB3DDC01CB018E016D
S11323E00B5A1F4FBC01CD010E94053DDC01CB01FE
S11323F0F8019183808324C0CE01895A9F4F20E93C
S113240031E0FC0131832083CE01895A9F4FFC01C6
S1132410808191810197F1F79E01295A3F4FF9017B
S113242091838083CE018B5A9F4F9E012B5A3F4F3D
S1132430F9012081318121503109FC01318320834C
S1132440CE018B5A9F4FFC0180819181892BA1F68B
S11324502CC08E010B5A1F4FCE018F5A9F4FFC0187
S113246060817181828193810E94053DDC01CB01F1
S1132470F80191838083CE01875A9F4F9E012B5A86
S11324803F4FF90120813181FC0131832083CE014A
S1132490875A9F4FFC01808191810197F1F79E013A
S11324A0275A3F4FF901918380838BE390E020E327
S11324B0FC0120838D819E81092E000CAA0BBB0B8D
S11324C0BC01CD010E94363DDC01CB019E012D5B98
S11324D03F4FF90180839183A283B3838E01095B0B
S11324E01F4FCE018D5B9F4F20E030E04AE755E45B
S11324F0FC0160817181828193810E94EB3DDC014A
S1132500CB01F80180839183A283B383CE01895BDD
S11325109F4F20E030E040E85FE3FC01608171817F
S1132520828193810E94873C88234CF4CE01855B91
S11325309F4F21E030E0FC01318320836DC0CE0148
S1132540895B9F4F20E03FEF4FE757E4FC01608138
S11325507181828193810E94E63D18160CF04AC075
S1132560CE018D5B9F4F20E030E040E251E4FC015E
S113257060817181828193810E94EB3DDC01CB01FA
S11325808E01055B1F4FBC01CD010E94053DDC019E
S1132590CB01F8019183808324C0CE01835B9F4FDC
S11325A020E931E0FC0131832083CE01835B9F4F1E
S11325B0FC01808191810197F1F79E01235B3F4FDC
S11325C0F90191838083CE01855B9F4F9E01255B3A
S11325D03F4FF9012081318121503109FC013183C0
S11325E02083CE01855B9F4FFC0180819181892BE3
S11325F0A1F62CC08E01055B1F4FCE01895B9F4F56
S1132600FC0160817181828193810E94053DDC011E
S1132610CB01F80191838083CE01815B9F4F9E01A2
S1132620255B3F4FF90120813181FC0131832083F7
S1132630CE01815B9F4FFC01808191810197F1F76D
S11326409E01215B3F4FF9019183808389819A81A7
S113265001969A83898389819A81C2970CF4FDC873
S113266080E090E0A0E2B1E48F839887A987BA87DD
S11326708E010F551F4F20E030E04AE755E46F818B
S1132680788589859A850E94EB3DDC01CB01F801B0
S113269080839183A283B383CE018F559F4F20E023
S11326A030E040E85FE3FC016081718182819381C5
S11326B00E94873C88234CF4CE018B559F4F21E028
S11326C030E0FC013183208369C0CE018F559F4FD8
S11326D020E03FEF4FE757E4FC0160817181828184
S11326E093810E94E63D18160CF046C020E030E0CD
S11326F040E251E46F81788589859A850E94EB3D9B
S1132700DC01CB018E010B551F4FBC01CD010E9492
S1132710053DDC01CB01F8019183808324C0CE0107
S113272089559F4F20E931E0FC0131832083CE019C
S113273089559F4FFC01808191810197F1F79E019A
S113274029553F4FF90191838083CE018B559F4FCB
S11327509E012B553F4FF9012081318121503109D0
S1132760FC0131832083CE018B559F4FFC01808176
S11327709181892BA1F6D5C48E010B551F4FCE0133
S11327808F559F4FFC0160817181828193810E94EA
S1132790053DDC01CB01F80191838083CE0187558F
S11327A09F4F9E012B553F4FF90120813181FC0140
S11327B031832083CE0187559F4FFC018081918115
S11327C00197F1F79E0127553F4FF90191838083CB
S11327D0A8C41C821B82E8C38BE390E020E3FC01C5
S11327E020838D819E81092E000CAA0BBB0BBC019A
S11327F0CD010E94363DDC01CB018BAB9CABADAB74
S1132800BEAB8E010D521F4F20E030E04AE755E485
S11328106BA97CA98DA99EA90E94EB3DDC01CB018B
S1132820F80180839183A283B383CE018D529F4F9D
S113283020E030E040E85FE3FC0160817181828147
S113284093810E94873C88234CF4CE0189529F4F88
S113285021E030E0FC013183208369C0CE018D5238
S11328609F4F20E03FEF4FE757E4FC016081718107
S1132870828193810E94E63D18160CF046C020E048
S113288030E040E251E46BA97CA98DA99EA90E9485
S1132890EB3DDC01CB018E0109521F4FBC01CD0180
S11328A00E94053DDC01CB01F8019183808324C0A3
S11328B0CE0187529F4F20E931E0FC013183208310
S11328C0CE0187529F4FFC01808191810197F1F7DE
S11328D09E0127523F4FF90191838083CE01895293
S11328E09F4F9E0129523F4FF90120813181215090
S11328F03109FC0131832083CE0189529F4FFC01B1
S113290080819181892BA1F62CC08E0109521F4F21
S1132910CE018D529F4FFC01608171818281938130
S11329200E94053DDC01CB01F80191838083CE0137
S113293085529F4F9E0129523F4FF90120813181D9
S1132940FC0131832083CE0185529F4FFC0180819D
S113295091810197F1F79E0125523F4FF90191832F
S113296080838BE390E020E9FC0120838D819E81AC
S1132970092E000CAA0BBB0BBC01CD010E94363DF5
S1132980DC01CB018FAB98AFA9AFBAAF8E0107536F
S11329901F4F20E030E04AE755E46FA978AD89ADD8
S11329A09AAD0E94EB3DDC01CB01F8018083918359
S11329B0A283B383CE0187539F4F20E030E040E8E9
S11329C05FE3FC0160817181828193810E94873C75
S11329D088234CF4CE0183539F4F21E030E0FC0167
S11329E03183208369C0CE0187539F4F20E03FEF9E
S11329F04FE757E4FC0160817181828193810E94D9
S1132A00E63D18160CF046C020E030E040E251E408
S1132A106FA978AD89AD9AAD0E94EB3DDC01CB0185
S1132A208E0103531F4FBC01CD010E94053DDC0103
S1132A30CB01F8019183808324C0CE0181539F4F41
S1132A4020E931E0FC0131832083CE0181539F4F83
S1132A50FC01808191810197F1F79E0121533F4F41
S1132A60F90191838083CE0183539F4F9E012353A9
S1132A703F4FF9012081318121503109FC0131831B
S1132A802083CE0183539F4FFC0180819181892B48
S1132A90A1F62CC08E0103531F4FCE0187539F4FC5
S1132AA0FC0160817181828193810E94053DDC017A
S1132AB0CB01F80191838083CE018F529F4F9E01F9
S1132AC023533F4FF90120813181FC01318320835D
S1132AD0CE018F529F4FFC01808191810197F1F7C4
S1132AE09E012F523F4FF901918380838BE390E045
S1132AF020ECFC0120838D819E81092E000CAA0B01
S1132B00BB0BBC01CD010E94363DDC01CB018BAF78
S1132B109CAFADAFBEAF8E0101541F4F20E030E03B
S1132B204AE755E46BAD7CAD8DAD9EAD0E94EB3DA7
S1132B30DC01CB01F80180839183A283B383CE01AE
S1132B4081549F4F20E030E040E85FE3FC01608166
S1132B507181828193810E94873C88234CF4CE0149
S1132B608D539F4F21E030E0FC013183208369C005
S1132B70CE0181549F4F20E03FEF4FE757E4FC0123
S1132B8060817181828193810E94E63D18160CF068
S1132B9046C020E030E040E251E46BAD7CAD8DAD49
S1132BA09EAD0E94EB3DDC01CB018E010D531F4F06
S1132BB0BC01CD010E94053DDC01CB01F8019183EC
S1132BC0808324C0CE018B539F4F20E931E0FC0168
S1132BD031832083CE018B539F4FFC0180819181EF
S1132BE00197F1F79E012B533F4FF90191838083A5
S1132BF0CE018D539F4F9E012D533F4FF9012081EC
S1132C00318121503109FC0131832083CE018D5360
S1132C109F4FFC0180819181892BA1F62CC08E01EC
S1132C200D531F4FCE0181549F4FFC016081718170
S1132C30828193810E94053DDC01CB01F8019183DF
S1132C408083CE0189539F4F9E012D533F4FF9013D
S1132C5020813181FC0131832083CE0189539F4F30
S1132C60FC01808191810197F1F79E0129533F4F27
S1132C70F901918380838BE390E020E6FC012083BB
S1132C808D819E81092E000CAA0BBB0BBC01CD01CA
S1132C900E94363DDC01CB019E01215C3F4FF901CE
S1132CA080839183A283B3838E010B541F4FCE0183
S1132CB0CF9620E030E04AE755E4FC016081718161
S1132CC0828193810E94EB3DDC01CB01F80180837A
S1132CD09183A283B383CE018B549F4F20E030E0D5
S1132CE040E85FE3FC0160817181828193810E94ED
S1132CF0873C88234CF4CE0187549F4F21E030E079
S1132D00FC01318320836CC0CE018B549F4F20E0A3
S1132D103FEF4FE757E4FC01608171818281938129
S1132D200E94E63D18160CF049C0CE01CF9620E073
S1132D3030E040E251E4FC01608171818281938141
S1132D400E94EB3DDC01CB018E0107541F4FBC01F7
S1132D50CD010E94053DDC01CB01F8019183808304
S1132D6024C0CE0185549F4F20E931E0FC0131831A
S1132D702083CE0185549F4FFC018081918101976E
S1132D80F1F79E0125543F4FF90191838083CE01D1
S1132D9087549F4F9E0127543F4FF9012081318171
S1132DA021503109FC0131832083CE0187549F4F88
S1132DB0FC0180819181892BA1F62CC08E010754DE
S1132DC01F4FCE018B549F4FFC0160817181828122
S1132DD093810E94053DDC01CB01F801918380833E
S1132DE0CE0183549F4F9E0127543F4FF901208108
S1132DF03181FC0131832083CE0183549F4FFC0138
S1132E00808191810197F1F79E0123543F4FF9018D
S1132E10918380838BE390E020E3FC0120838D8108
S1132E209E81092E000CAA0BBB0BBC01CD010E9494
S1132E30363DDC01CB018BA79CA7ADA7BEA78E01B5
S1132E4005551F4F20E030E04AE755E46BA57CA50B
S1132E508DA59EA50E94EB3DDC01CB01F80180838A
S1132E609183A283B383CE0185559F4F20E030E048
S1132E7040E85FE3FC0160817181828193810E945B
S1132E80873C88234CF4CE0181559F4F21E030E0EC
S1132E90FC013183208369C0CE0185559F4F20E01A
S1132EA03FEF4FE757E4FC01608171818281938198
S1132EB00E94E63D18160CF046C020E030E040E2E7
S1132EC051E46BA57CA58DA59EA50E94EB3DDC017C
S1132ED0CB018E0101551F4FBC01CD010E94053D60
S1132EE0DC01CB01F8019183808324C0CE018F548F
S1132EF09F4F20E931E0FC0131832083CE018F54C0
S1132F009F4FFC01808191810197F1F79E012F541D
S1132F103F4FF90191838083CE0181559F4F9E01DC
S1132F2021553F4FF9012081318121503109FC01A4
S1132F3031832083CE0181559F4FFC018081918193
S1132F40892BA1F62CC08E0101551F4FCE0185554A
S1132F509F4FFC0160817181828193810E94053DB4
S1132F60DC01CB01F80191838083CE018D549F4F06
S1132F709E0121553F4FF90120813181FC013183AC
S1132F802083CE018D549F4FFC0180819181019754
S1132F90F1F79E012D543F4FF901918380838B817A
S1132FA09C8101969C838B838B819C81C2970CF4BA
S1132FB013CC80E090E0A0E2B1E48FA798ABA9AB7A
S1132FC0BAAB8E0103521F4F20E030E04AE755E4CC
S1132FD06FA578A989A99AA90E94EB3DDC01CB01D0
S1132FE0F80180839183A283B383CE0183529F4FE0
S1132FF020E030E040E85FE3FC0160817181828180
S113300093810E94873C88234CF4CE018F519F4FBB
S113301021E030E0FC013183208369C0CE0183527A
S11330209F4F20E03FEF4FE757E4FC01608171813F
S1133030828193810E94E63D18160CF046C020E080
S113304030E040E251E46FA578A989A99AA90E94C9
S1133050EB3DDC01CB018E010F511F4FBC01CD01B3
S11330600E94053DDC01CB01F8019183808324C0DB
S1133070CE018D519F4F20E931E0FC013183208343
S1133080CE018D519F4FFC01808191810197F1F711
S11330909E012D513F4FF90191838083CE018F51C1
S11330A09F4F9E012F513F4FF901208131812150C3
S11330B03109FC0131832083CE018F519F4FFC01E4
S11330C080819181892BA1F62CC08E010F511F4F55
S11330D0CE0183529F4FFC01608171818281938173
S11330E00E94053DDC01CB01F80191838083CE0170
S11330F08B519F4F9E012F513F4FF9012081318108
S1133100FC0131832083CE018B519F4FFC018081D0
S113311091810197F1F79E012B513F4FF901918362
S113312080830000C451DF4F0FB6F894DEBF0FBE9A
S1133130CDBFDF91CF911F910F9108950F931F93EE
S1133140CF93DF93CDB7DEB7CC5ED1090FB6F89439
S1133150DEBF0FBECDBF9E0129513F4FF9019183C0
S11331608083CE0187519F4FFC014083518362834A
S113317073838AE090E09E838D83CE0189519F4FB3
S1133180FC0180819181019709F0BFC71A821982DD
S1133190FEC685E390E023E0FC0120838D819E81BF
S11331A0092E000CAA0BBB0BBC01CD010E94363DBD
S11331B0DC01CB018B879C87AD87BE878E010956C6
S11331C01F4F20E030E04AE755E46B857C858D8510
S11331D09E850E94EB3DDC01CB01F8018083918345
S11331E0A283B383CE0189569F4F20E030E040E8AC
S11331F05FE3FC0160817181828193810E94873C3D
S113320088234CF4CE0185569F4F21E030E0FC0129
S11332103183208369C0CE0189569F4F20E03FEF60
S11332204FE757E4FC0160817181828193810E94A0
S1133230E63D18160CF046C020E030E040E251E4D0
S11332406B857C858D859E850E94EB3DDC01CB01E1
S11332508E0105561F4FBC01CD010E94053DDC01C6
S1133260CB01F8019183808324C0CE0183569F4F04
S113327020E931E0FC0131832083CE0183569F4F46
S1133280FC01808191810197F1F79E0123563F4F04
S1133290F90191838083CE0185569F4F9E01255667
S11332A03F4FF9012081318121503109FC013183E3
S11332B02083CE0185569F4FFC0180819181892B0B
S11332C0A1F62CC08E0105561F4FCE0189569F4F83
S11332D0FC0160817181828193810E94053DDC0142
S11332E0CB01F80191838083CE0181569F4F9E01CB
S11332F025563F4FF90120813181FC013183208320
S1133300CE0181569F4FFC01808191810197F1F795
S11333109E0121563F4FF9019183808385E390E01C
S113332022E0FC0120838D819E81092E000CAA0BD2
S1133330BB0BBC01CD010E94363DDC01CB018F8764
S1133340988BA98BBA8B8E0103571F4F20E030E076
S11333504AE755E46F85788989899A890E94EB3D0B
S1133360DC01CB01F80180839183A283B383CE0176
S113337083579F4F20E030E040E85FE3FC01608129
S11333807181828193810E94873C88234CF4CE0111
S11333908F569F4F21E030E0FC013183208369C0C8
S11333A0CE0183579F4F20E03FEF4FE757E4FC01E6
S11333B060817181828193810E94E63D18160CF030
S11333C046C020E030E040E251E46F857889898985
S11333D09A890E94EB3DDC01CB018E010F561F4FF1
S11333E0BC01CD010E94053DDC01CB01F8019183B4
S11333F0808324C0CE018D569F4F20E931E0FC012B
S113340031832083CE018D569F4FFC0180819181B1
S11334100197F1F79E012D563F4FF9019183808367
S1133420CE018F569F4F9E012F563F4FF9012081A9
S1133430318121503109FC0131832083CE018F5623
S11334409F4FFC0180819181892BA1F62CC08E01B4
S11334500F561F4FCE0183579F4FFC01608171812E
S1133460828193810E94053DDC01CB01F8019183A7
S11334708083CE018B569F4F9E012F563F4FF901FB
S113348020813181FC0131832083CE018B569F4FF3
S1133490FC01808191810197F1F79E012B563F4FEA
S11334A0F9019183808385E390E026E0FC01208389
S11334B08D819E81092E000CAA0BBB0BBC01CD0192
S11334C00E94363DDC01CB018B8B9C8BAD8BBE8B7C
S11334D08E010D571F4F20E030E04AE755E46B8919
S11334E07C898D899E890E94EB3DDC01CB01F8012A
S11334F080839183A283B383CE018D579F4F20E0B5
S113350030E040E85FE3FC01608171818281938156
S11335100E94873C88234CF4CE0189579F4F21E0B9
S113352030E0FC013183208369C0CE018D579F4F69
S113353020E03FEF4FE757E4FC0160817181828115
S113354093810E94E63D18160CF046C020E030E05E
S113355040E251E46B897C898D899E890E94EB3D10
S1133560DC01CB018E0109571F4FBC01CD010E9424
S1133570053DDC01CB01F8019183808324C0CE0199
S113358087579F4F20E931E0FC0131832083CE012E
S113359087579F4FFC01808191810197F1F79E012C
S11335A027573F4FF90191838083CE0189579F4F5D
S11335B09E0129573F4FF901208131812150310962
S11335C0FC0131832083CE0189579F4FFC01808108
S11335D09181892BA1F62CC08E0109571F4FCE0172
S11335E08D579F4FFC0160817181828193810E947C
S11335F0053DDC01CB01F80191838083CE01855721
S11336009F4F9E0129573F4FF90120813181FC01D1
S113361031832083CE0185579F4FFC0180819181A6
S11336200197F1F79E0125573F4FF901918380835C
S113363085E390E024E0FC0120838D819E81092EA6
S1133640000CAA0BBB0BBC01CD010E94363DDC0172
S1133650CB018F8B988FA98FBA8F8E0107581F4F7C
S113366020E030E04AE755E46F89788D898D9A8DA2
S11336700E94EB3DDC01CB01F80180839183A2839E
S1133680B383CE0187589F4F20E030E040E85FE3EA
S1133690FC0160817181828193810E94873C88232F
S11336A04CF4CE0183589F4F21E030E0FC0131837C
S11336B0208369C0CE0187589F4F20E03FEF4FE73A
S11336C057E4FC0160817181828193810E94E63D0F
S11336D018160CF046C020E030E040E251E46F8957
S11336E0788D898D9A8D0E94EB3DDC01CB018E0192
S11336F003581F4FBC01CD010E94053DDC01CB01E5
S1133700F8019183808324C0CE0181589F4F20E922
S113371031E0FC0131832083CE0181589F4FFC01AD
S1133720808191810197F1F79E0121583F4FF90162
S113373091838083CE0183589F4F9E0123583F4F2E
S1133740F9012081318121503109FC013183208329
S1133750CE0183589F4FFC0180819181892BA1F672
S11337602CC08E0103581F4FCE0187589F4FFC0178
S113377060817181828193810E94053DDC01CB01CE
S1133780F80191838083CE018F579F4F9E01235868
S11337903F4FF90120813181FC0131832083CE0127
S11337A08F579F4FFC01808191810197F1F79E0112
S11337B02F573F4FF9019183808385E390E02CE0FC
S11337C0FC0120838D819E81092E000CAA0BBB0B6A
S11337D0BC01CD010E94363DDC01CB018B8F9C8F57
S11337E0AD8FBE8F8E0101591F4F20E030E04AE7B4
S11337F055E46B8D7C8D8D8D9E8D0E94EB3DDC019F
S1133800CB01F80180839183A283B383CE018159D4
S11338109F4F20E030E040E85FE3FC01608171816C
S1133820828193810E94873C88234CF4CE018D5879
S11338309F4F21E030E0FC013183208369C0CE0139
S113384081599F4F20E03FEF4FE757E4FC0160812F
S11338507181828193810E94E63D18160CF046C066
S113386020E030E040E251E46B8D7C8D8D8D9E8DA7
S11338700E94EB3DDC01CB018E010D581F4FBC01B2
S1133880CD010E94053DDC01CB01F80191838083C9
S113389024C0CE018B589F4F20E931E0FC013183D5
S11338A02083CE018B589F4FFC0180819181019729
S11338B0F1F79E012B583F4FF90191838083CE018C
S11338C08D589F4F9E012D583F4FF9012081318122
S11338D021503109FC0131832083CE018D589F4F43
S11338E0FC0180819181892BA1F62CC08E010D5899
S11338F01F4FCE0181599F4FFC01608171818281EC
S113390093810E94053DDC01CB01F8019183808302
S1133910CE0189589F4F9E012D583F4FF9012081B8
S11339203181FC0131832083CE0189589F4FFC01F2
S1133930808191810197F1F79E0129583F4FF90148
S11339409183808385E390E028E0FC0120838D81CE
S11339509E81092E000CAA0BBB0BBC01CD010E9459
S1133960363DDC01CB018F8F98A3A9A3BAA38E01A6
S11339700B591F4F20E030E04AE755E46F8D78A1E2
S113398089A19AA10E94EB3DDC01CB01F80180835F
S11339909183A283B383CE018B599F4F20E030E003
S11339A040E85FE3FC0160817181828193810E9420
S11339B0873C88234CF4CE0187599F4F21E030E0A7
S11339C0FC013183208369C0CE018B599F4F20E0D5
S11339D03FEF4FE757E4FC0160817181828193815D
S11339E00E94E63D18160CF046C020E030E040E2AC
S11339F051E46F8D78A189A19AA10E94EB3DDC016D
S1133A00CB018E0107591F4FBC01CD010E94053D1A
S1133A10DC01CB01F8019183808324C0CE01855958
S1133A209F4F20E931E0FC0131832083CE01855989
S1133A309F4FFC01808191810197F1F79E012559E7
S1133A403F4FF90191838083CE0187599F4F9E0197
S1133A5027593F4FF9012081318121503109FC015F
S1133A6031832083CE0187599F4FFC01808191814E
S1133A70892BA1F62CC08E0107591F4FCE018B59FB
S1133A809F4FFC0160817181828193810E94053D79
S1133A90DC01CB01F80191838083CE0183599F4FD0
S1133AA09E0127593F4FF90120813181FC01318367
S1133AB02083CE0183599F4FFC018081918101971E
S1133AC0F1F79E0123593F4FF9019183808385E3E8
S1133AD090E029E0FC0120838D819E81092E000C59
S1133AE0AA0BBB0BBC01CD010E94363DDC01CB010E
S1133AF08BA39CA3ADA3BEA38E01055A1F4F20E048
S1133B0030E04AE755E46BA17CA18DA19EA10E94FF
S1133B10EB3DDC01CB01F80180839183A283B38365
S1133B20CE01855A9F4F20E030E040E85FE3FC017E
S1133B3060817181828193810E94873C88234CF447
S1133B40CE01815A9F4F21E030E0FC013183208374
S1133B5069C0CE01855A9F4F20E03FEF4FE757E4FD
S1133B60FC0160817181828193810E94E63D181677
S1133B700CF046C020E030E040E251E46BA17CA1AF
S1133B808DA19EA10E94EB3DDC01CB018E01015A67
S1133B901F4FBC01CD010E94053DDC01CB01F801A2
S1133BA09183808324C0CE018F599F4F20E931E057
S1133BB0FC0131832083CE018F599F4FFC0180810A
S1133BC091810197F1F79E012F593F4FF90191839C
S1133BD08083CE01815A9F4F9E01215A3F4FF901A4
S1133BE02081318121503109FC0131832083CE01B0
S1133BF0815A9F4FFC0180819181892BA1F62CC0B1
S1133C008E01015A1F4FCE01855A9F4FFC016081DE
S1133C107181828193810E94053DDC01CB01F80111
S1133C2091838083CE018D599F4F9E01215A3F4F2E
S1133C30F90120813181FC0131832083CE018D592A
S1133C409F4FFC01808191810197F1F79E012D59CD
S1133C503F4FF9019183808385E390E021E0FC01EB
S1133C6020838D819E81092E000CAA0BBB0BBC0105
S1133C70CD010E94363DDC01CB018FA398A7A9A7F3
S1133C80BAA78E010F5A1F4F20E030E04AE755E4EF
S1133C906FA178A589A59AA50E94EB3DDC01CB0113
S1133CA0F80180839183A283B383CE018F5A9F4FFF
S1133CB020E030E040E85FE3FC01608171818281B3
S1133CC093810E94873C88234CF4CE018B5A9F4FEA
S1133CD021E030E0FC013183208369C0CE018F5A9A
S1133CE09F4F20E03FEF4FE757E4FC016081718173
S1133CF0828193810E94E63D18160CF046C020E0B4
S1133D0030E040E251E46FA178A589A59AA50E940C
S1133D10EB3DDC01CB018E010B5A1F4FBC01CD01E1
S1133D200E94053DDC01CB01F8019183808324C00E
S1133D30CE01895A9F4F20E931E0FC013183208371
S1133D40CE01895A9F4FFC01808191810197F1F73F
S1133D509E01295A3F4FF90191838083CE018B5AEA
S1133D609F4F9E012B5A3F4FF901208131812150F1
S1133D703109FC0131832083CE018B5A9F4FFC0112
S1133D8080819181892BA1F62CC08E010B5A1F4F83
S1133D90CE018F5A9F4FFC01608171818281938192
S1133DA00E94053DDC01CB01F80191838083CE01A3
S1133DB0875A9F4F9E012B5A3F4FF9012081318131
S1133DC0FC0131832083CE01875A9F4FFC018081FF
S1133DD091810197F1F79E01275A3F4FF901918391
S1133DE0808385E390E023E0FC0120838D819E8124
S1133DF0092E000CAA0BBB0BBC01CD010E94363D61
S1133E00DC01CB019E012D5B3F4FF901808391833F
S1133E10A283B3838E01095B1F4FCE018D5B9F4F3D
S1133E2020E030E04AE755E4FC0160817181828141
S1133E3093810E94EB3DDC01CB01F80180839183E7
S1133E40A283B383CE01895B9F4F20E030E040E83A
S1133E505FE3FC0160817181828193810E94873CD0
S1133E6088234CF4CE01855B9F4F21E030E0FC01B8
S1133E70318320836DC0CE01895B9F4F20E03FEFEB
S1133E804FE757E4FC0160817181828193810E9434
S1133E90E63D18160CF04AC0CE018D5B9F4F20E022
S1133EA030E040E251E4FC016081718182819381C0
S1133EB00E94EB3DDC01CB018E01055B1F4FBC0171
S1133EC0CD010E94053DDC01CB01F8019183808383
S1133ED024C0CE01835B9F4F20E931E0FC01318394
S1133EE02083CE01835B9F4FFC01808191810197E8
S1133EF0F1F79E01235B3F4FF90191838083CE014B
S1133F00855B9F4F9E01255B3F4FF90120813181E5
S1133F1021503109FC0131832083CE01855B9F4F01
S1133F20FC0180819181892BA1F62CC08E01055B57
S1133F301F4FCE01895B9F4FFC016081718182819B
S1133F4093810E94053DDC01CB01F80191838083BC
S1133F50CE01815B9F4F9E01255B3F4FF90120817C
S1133F603181FC0131832083CE01815B9F4FFC01B1
S1133F70808191810197F1F79E01215B3F4FF90107
S1133F809183808389819A8101969A838983898127
S1133F909A81C2970CF4FDC880E090E0A0E2B1E4FD
S1133FA08F839887A987BA878E010F551F4F20E00A
S1133FB030E04AE755E46F81788589859A850E94C7
S1133FC0EB3DDC01CB01F80180839183A283B383B1
S1133FD0CE018F559F4F20E030E040E85FE3FC01C5
S1133FE060817181828193810E94873C88234CF493
S1133FF0CE018B559F4F21E030E0FC0131832083BB
S113400069C0CE018F559F4F20E03FEF4FE757E443
S1134010FC0160817181828193810E94E63D1816C2
S11340200CF046C020E030E040E251E46F81788536
S113403089859A850E94EB3DDC01CB018E010B55ED
S11340401F4FBC01CD010E94053DDC01CB01F801ED
S11340509183808324C0CE0189559F4F20E931E0AC
S1134060FC0131832083CE0189559F4FFC0180815F
S113407091810197F1F79E0129553F4FF9019183F1
S11340808083CE018B559F4F9E012B553F4FF901E5
S11340902081318121503109FC0131832083CE01FB
S11340A08B559F4FFC0180819181892BA1F6D5C44A
S11340B08E010B551F4FCE018F559F4FFC01608120
S11340C07181828193810E94053DDC01CB01F8015D
S11340D091838083CE0187559F4F9E012B553F4F7F
S11340E0F90120813181FC0131832083CE01875580
S11340F09F4FFC01808191810197F1F79E01275523
S11341003F4FF90191838083A8C41C821B82E8C3BA
S113411085E390E023E0FC0120838D819E81092EBC
S1134120000CAA0BBB0BBC01CD010E94363DDC0187
S1134130CB018BAB9CABADABBEAB8E010D521F4F15
S113414020E030E04AE755E46BA97CA98DA99EA93B
S11341500E94EB3DDC01CB01F80180839183A283B3
S1134160B383CE018D529F4F20E030E040E85FE3FF
S1134170FC0160817181828193810E94873C882344
S11341804CF4CE0189529F4F21E030E0FC01318391
S1134190208369C0CE018D529F4F20E03FEF4FE74F
S11341A057E4FC0160817181828193810E94E63D24
S11341B018160CF046C020E030E040E251E46BA950
S11341C07CA98DA99EA90E94EB3DDC01CB018E0147
S11341D009521F4FBC01CD010E94053DDC01CB01FA
S11341E0F8019183808324C0CE0187529F4F20E938
S11341F031E0FC0131832083CE0187529F4FFC01C3
S1134200808191810197F1F79E0127523F4FF90177
S113421091838083CE0189529F4F9E0129523F4F43
S1134220F9012081318121503109FC01318320833E
S1134230CE0189529F4FFC0180819181892BA1F687
S11342402CC08E0109521F4FCE018D529F4FFC018D
S113425060817181828193810E94053DDC01CB01E3
S1134260F80191838083CE0185529F4F9E0129528C
S11342703F4FF90120813181FC0131832083CE013C
S113428085529F4FFC01808191810197F1F79E0136
S113429025523F4FF9019183808385E390E029E023
S11342A0FC0120838D819E81092E000CAA0BBB0B7F
S11342B0BC01CD010E94363DDC01CB018FAB98AF30
S11342C0A9AFBAAF8E0107531F4F20E030E04AE791
S11342D055E46FA978AD89AD9AAD0E94EB3DDC0140
S11342E0CB01F80180839183A283B383CE018753EA
S11342F09F4F20E030E040E85FE3FC016081718182
S1134300828193810E94873C88234CF4CE0183539D
S11343109F4F21E030E0FC013183208369C0CE014E
S113432087539F4F20E03FEF4FE757E4FC01608144
S11343307181828193810E94E63D18160CF046C07B
S113434020E030E040E251E46FA978AD89AD9AAD48
S11343500E94EB3DDC01CB018E0103531F4FBC01D6
S1134360CD010E94053DDC01CB01F80191838083DE
S113437024C0CE0181539F4F20E931E0FC013183F9
S11343802083CE0181539F4FFC018081918101974D
S1134390F1F79E0121533F4FF90191838083CE01B0
S11343A083539F4F9E0123533F4FF9012081318155
S11343B021503109FC0131832083CE0183539F4F67
S11343C0FC0180819181892BA1F62CC08E010353BD
S11343D01F4FCE0187539F4FFC0160817181828101
S11343E093810E94053DDC01CB01F8019183808318
S11343F0CE018F529F4F9E0123533F4FF9012081DD
S11344003181FC0131832083CE018F529F4FFC0107
S1134410808191810197F1F79E012F523F4FF9015D
S11344209183808385E390E02CE0FC0120838D81DF
S11344309E81092E000CAA0BBB0BBC01CD010E946E
S1134440363DDC01CB018BAF9CAFADAFBEAF8E016F
S113445001541F4F20E030E04AE755E46BAD7CADDA
S11344608DAD9EAD0E94EB3DDC01CB01F801808354
S11344709183A283B383CE0181549F4F20E030E027
S113448040E85FE3FC0160817181828193810E9435
S1134490873C88234CF4CE018D539F4F21E030E0BC
S11344A0FC013183208369C0CE0181549F4F20E0F9
S11344B03FEF4FE757E4FC01608171818281938172
S11344C00E94E63D18160CF046C020E030E040E2C1
S11344D051E46BAD7CAD8DAD9EAD0E94EB3DDC0136
S11344E0CB018E010D531F4FBC01CD010E94053D30
S11344F0DC01CB01F8019183808324C0CE018B536E
S11345009F4F20E931E0FC0131832083CE018B539E
S11345109F4FFC01808191810197F1F79E012B53FC
S11345203F4FF90191838083CE018D539F4F9E01AC
S11345302D533F4FF9012081318121503109FC0174
S113454031832083CE018D539F4FFC018081918163
S1134550892BA1F62CC08E010D531F4FCE0181541F
S11345609F4FFC0160817181828193810E94053D8E
S1134570DC01CB01F80191838083CE0189539F4FE5
S11345809E012D533F4FF90120813181FC0131837C
S11345902083CE0189539F4FFC0180819181019733
S11345A0F1F79E0129533F4FF9019183808385E3FD
S11345B090E026E0FC0120838D819E81092E000C71
S11345C0AA0BBB0BBC01CD010E94363DDC01CB0123
S11345D09E01215C3F4FF90180839183A283B383C1
S11345E08E010B541F4FCE01CF9620E030E04AE7F6
S11345F055E4FC0160817181828193810E94EB3DCD
S1134600DC01CB01F80180839183A283B383CE01C3
S11346108B549F4F20E030E040E85FE3FC01608171
S11346207181828193810E94873C88234CF4CE015E
S113463087549F4F21E030E0FC01318320836CC01C
S1134640CE018B549F4F20E03FEF4FE757E4FC012E
S113465060817181828193810E94E63D18160CF07D
S113466049C0CE01CF9620E030E040E251E4FC01A5
S113467060817181828193810E94EB3DDC01CB01D9
S11346808E0107541F4FBC01CD010E94053DDC0182
S1134690CB01F8019183808324C0CE0185549F4FC0
S11346A020E931E0FC0131832083CE0185549F4F02
S11346B0FC01808191810197F1F79E0125543F4FC0
S11346C0F90191838083CE0187549F4F9E01275423
S11346D03F4FF9012081318121503109FC0131839F
S11346E02083CE0187549F4FFC0180819181892BC7
S11346F0A1F62CC08E0107541F4FCE018B549F4F3F
S1134700FC0160817181828193810E94053DDC01FD
S1134710CB01F80191838083CE0183549F4F9E0186
S113472027543F4FF90120813181FC0131832083DB
S1134730CE0183549F4FFC01808191810197F1F751
S11347409E0123543F4FF9019183808385E390E0D8
S113475023E0FC0120838D819E81092E000CAA0B8D
S1134760BB0BBC01CD010E94363DDC01CB018BA704
S11347709CA7ADA7BEA78E0105551F4F20E030E0D2
S11347804AE755E46BA57CA58DA59EA50E94EB3D4B
S1134790DC01CB01F80180839183A283B383CE0132
S11347A085559F4F20E030E040E85FE3FC016081E5
S11347B07181828193810E94873C88234CF4CE01CD
S11347C081559F4F21E030E0FC013183208369C093
S11347D0CE0185559F4F20E03FEF4FE757E4FC01A2
S11347E060817181828193810E94E63D18160CF0EC
S11347F046C020E030E040E251E46BA57CA58DA5E5
S11348009EA50E94EB3DDC01CB018E0101551F4F9B
S1134810BC01CD010E94053DDC01CB01F80191836F
S1134820808324C0CE018F549F4F20E931E0FC01E6
S113483031832083CE018F549F4FFC01808191816D
S11348400197F1F79E012F543F4FF9019183808323
S1134850CE0181559F4F9E0121553F4FF901208183
S1134860318121503109FC0131832083CE018155EE
S11348709F4FFC0180819181892BA1F62CC08E0170
S113488001551F4FCE0185559F4FFC0160817181F9
S1134890828193810E94053DDC01CB01F801918363
S11348A08083CE018D549F4F9E0121553F4FF901C6
S11348B020813181FC0131832083CE018D549F4FAF
S11348C0FC01808191810197F1F79E012D543F4FA6
S11348D0F901918380838B819C8101969C838B83D6
S11348E08B819C81C2970CF413CC80E090E0A0E211
S11348F0B1E48FA798ABA9ABBAAB8E0103521F4F9B
S113490020E030E04AE755E46FA578A989A99AA97F
S11349100E94EB3DDC01CB01F80180839183A283EB
S1134920B383CE0183529F4F20E030E040E85FE341
S1134930FC0160817181828193810E94873C88237C
S11349404CF4CE018F519F4F21E030E0FC013183C4
S1134950208369C0CE0183529F4F20E03FEF4FE791
S113496057E4FC0160817181828193810E94E63D5C
S113497018160CF046C020E030E040E251E46FA588
S113498078A989A99AA90E94EB3DDC01CB018E018B
S11349900F511F4FBC01CD010E94053DDC01CB012D
S11349A0F8019183808324C0CE018D519F4F20E96B
S11349B031E0FC0131832083CE018D519F4FFC01F6
S11349C0808191810197F1F79E012D513F4FF901AB
S11349D091838083CE018F519F4F9E012F513F4F72
S11349E0F9012081318121503109FC013183208377
S11349F0CE018F519F4FFC0180819181892BA1F6BB
S1134A002CC08E010F511F4FCE0183529F4FFC01CA
S1134A1060817181828193810E94053DDC01CB011B
S1134A20F80191838083CE018B519F4F9E012F51BA
S1134A303F4FF90120813181FC0131832083CE0174
S1134A408B519F4FFC01808191810197F1F79E0169
S1134A502B513F4FF901918380830000C451DF4FF4
S1134A600FB6F894DEBF0FBECDBFDF91CF911F917B
S1134A700F9108950F931F93CF93DF93CDB7DEB7B4
S1134A80C85ED1090FB6F894DEBF0FBECDBF9E013C
S1134A9029513F4FF901918380838AE090E09E83FE
S1134AA08D83CE0189519F4FFC01808191810197B3
S1134AB009F0BFC71A821982FEC685E390E020E39D
S1134AC0FC0120838D819E81092E000CAA0BBB0B57
S1134AD0BC01CD010E94363DDC01CB018B879C8754
S1134AE0AD87BE878E0109561F4F20E030E04AE7AC
S1134AF055E46B857C858D859E850E94EB3DDC01AC
S1134B00CB01F80180839183A283B383CE018956BC
S1134B109F4F20E030E040E85FE3FC016081718159
S1134B20828193810E94873C88234CF4CE01855670
S1134B309F4F21E030E0FC013183208369C0CE0126
S1134B4089569F4F20E03FEF4FE757E4FC01608117
S1134B507181828193810E94E63D18160CF046C053
S1134B6020E030E040E251E46B857C858D859E85B4
S1134B700E94EB3DDC01CB018E0105561F4FBC01A9
S1134B80CD010E94053DDC01CB01F80191838083B6
S1134B9024C0CE0183569F4F20E931E0FC013183CC
S1134BA02083CE0183569F4FFC0180819181019720
S1134BB0F1F79E0123563F4FF90191838083CE0183
S1134BC085569F4F9E0125563F4FF9012081318123
S1134BD021503109FC0131832083CE0185569F4F3A
S1134BE0FC0180819181892BA1F62CC08E01055690
S1134BF01F4FCE0189569F4FFC01608171818281D4
S1134C0093810E94053DDC01CB01F80191838083EF
S1134C10CE0181569F4F9E0125563F4FF9012081B9
S1134C203181FC0131832083CE0181569F4FFC01E9
S1134C30808191810197F1F79E0121563F4FF9013F
S1134C409183808385E390E020E2FC0120838D81C1
S1134C509E81092E000CAA0BBB0BBC01CD010E9446
S1134C60363DDC01CB018F87988BA98BBA8B8E01E3
S1134C7003571F4F20E030E04AE755E46F857889F9
S1134C8089899A890E94EB3DDC01CB01F80180837C
S1134C909183A283B383CE0183579F4F20E030E0FA
S1134CA040E85FE3FC0160817181828193810E940D
S1134CB0873C88234CF4CE018F569F4F21E030E08F
S1134CC0FC013183208369C0CE0183579F4F20E0CC
S1134CD03FEF4FE757E4FC0160817181828193814A
S1134CE00E94E63D18160CF046C020E030E040E299
S1134CF051E46F85788989899A890E94EB3DDC01AA
S1134D00CB018E010F561F4FBC01CD010E94053D02
S1134D10DC01CB01F8019183808324C0CE018D5640
S1134D209F4F20E931E0FC0131832083CE018D5671
S1134D309F4FFC01808191810197F1F79E012D56CF
S1134D403F4FF90191838083CE018F569F4F9E017F
S1134D502F563F4FF9012081318121503109FC0147
S1134D6031832083CE018F569F4FFC018081918136
S1134D70892BA1F62CC08E010F561F4FCE018357ED
S1134D809F4FFC0160817181828193810E94053D66
S1134D90DC01CB01F80191838083CE018B569F4FB8
S1134DA09E012F563F4FF90120813181FC0131834F
S1134DB02083CE018B569F4FFC0180819181019706
S1134DC0F1F79E012B563F4FF9019183808385E3D0
S1134DD090E020E6FC0120838D819E81092E000C49
S1134DE0AA0BBB0BBC01CD010E94363DDC01CB01FB
S1134DF08B8B9C8BAD8BBE8B8E010D571F4F20E090
S1134E0030E04AE755E46B897C898D899E890E944C
S1134E10EB3DDC01CB01F80180839183A283B38352
S1134E20CE018D579F4F20E030E040E85FE3FC0166
S1134E3060817181828193810E94873C88234CF434
S1134E40CE0189579F4F21E030E0FC01318320835C
S1134E5069C0CE018D579F4F20E03FEF4FE757E4E5
S1134E60FC0160817181828193810E94E63D181664
S1134E700CF046C020E030E040E251E46B897C89CC
S1134E808D899E890E94EB3DDC01CB018E0109577F
S1134E901F4FBC01CD010E94053DDC01CB01F8018F
S1134EA09183808324C0CE0187579F4F20E931E04E
S1134EB0FC0131832083CE0187579F4FFC01808101
S1134EC091810197F1F79E0127573F4FF901918393
S1134ED08083CE0189579F4F9E0129573F4FF90187
S1134EE02081318121503109FC0131832083CE019D
S1134EF089579F4FFC0180819181892BA1F62CC099
S1134F008E0109571F4FCE018D579F4FFC016081C1
S1134F107181828193810E94053DDC01CB01F801FE
S1134F2091838083CE0185579F4F9E0129573F4F20
S1134F30F90120813181FC0131832083CE01855721
S1134F409F4FFC01808191810197F1F79E012557C4
S1134F503F4FF9019183808385E390E020E4FC01D5
S1134F6020838D819E81092E000CAA0BBB0BBC01F2
S1134F70CD010E94363DDC01CB018F8B988FA98F28
S1134F80BA8F8E0107581F4F20E030E04AE755E4FE
S1134F906F89788D898D9A8D0E94EB3DDC01CB0160
S1134FA0F80180839183A283B383CE0187589F4FF6
S1134FB020E030E040E85FE3FC01608171818281A0
S1134FC093810E94873C88234CF4CE0183589F4FE1
S1134FD021E030E0FC013183208369C0CE01875891
S1134FE09F4F20E03FEF4FE757E4FC016081718160
S1134FF0828193810E94E63D18160CF046C020E0A1
S113500030E040E251E46F89788D898D9A8D0E9459
S1135010EB3DDC01CB018E0103581F4FBC01CD01D8
S11350200E94053DDC01CB01F8019183808324C0FB
S1135030CE0181589F4F20E931E0FC013183208368
S1135040CE0181589F4FFC01808191810197F1F736
S11350509E0121583F4FF90191838083CE018358EB
S11350609F4F9E0123583F4FF901208131812150E8
S11350703109FC0131832083CE0183589F4FFC0109
S113508080819181892BA1F62CC08E0103581F4F7A
S1135090CE0187589F4FFC01608171818281938189
S11350A00E94053DDC01CB01F80191838083CE0190
S11350B08F579F4F9E0123583F4FF9012081318123
S11350C0FC0131832083CE018F579F4FFC018081E7
S11350D091810197F1F79E012F573F4FF901918379
S11350E0808385E390E020ECFC0120838D819E8108
S11350F0092E000CAA0BBB0BBC01CD010E94363D4E
S1135100DC01CB018B8F9C8FAD8FBE8F8E0101593B
S11351101F4F20E030E04AE755E46B8D7C8D8D8D88
S11351209E8D0E94EB3DDC01CB01F80180839183CD
S1135130A283B383CE0181599F4F20E030E040E841
S11351405FE3FC0160817181828193810E94873CCD
S113515088234CF4CE018D589F4F21E030E0FC01B0
S11351603183208369C0CE0181599F4F20E03FEFF6
S11351704FE757E4FC0160817181828193810E9431
S1135180E63D18160CF046C020E030E040E251E461
S11351906B8D7C8D8D8D9E8D0E94EB3DDC01CB0152
S11351A08E010D581F4FBC01CD010E94053DDC014D
S11351B0CB01F8019183808324C0CE018B589F4F8B
S11351C020E931E0FC0131832083CE018B589F4FCD
S11351D0FC01808191810197F1F79E012B583F4F8B
S11351E0F90191838083CE018D589F4F9E012D58E4
S11351F03F4FF9012081318121503109FC01318374
S11352002083CE018D589F4FFC0180819181892B91
S1135210A1F62CC08E010D581F4FCE0181599F4F0E
S1135220FC0160817181828193810E94053DDC01D2
S1135230CB01F80191838083CE0189589F4F9E0151
S11352402D583F4FF90120813181FC0131832083A6
S1135250CE0189589F4FFC01808191810197F1F71C
S11352609E0129583F4FF9019183808385E390E0A3
S113527020E8FC0120838D819E81092E000CAA0B5D
S1135280BB0BBC01CD010E94363DDC01CB018F8FED
S113529098A3A9A3BAA38E010B591F4F20E030E0B5
S11352A04AE755E46F8D78A189A19AA10E94EB3D4C
S11352B0DC01CB01F80180839183A283B383CE0107
S11352C08B599F4F20E030E040E85FE3FC016081B0
S11352D07181828193810E94873C88234CF4CE01A2
S11352E087599F4F21E030E0FC013183208369C05E
S11352F0CE018B599F4F20E03FEF4FE757E4FC016D
S113530060817181828193810E94E63D18160CF0C0
S113531046C020E030E040E251E46F8D78A189A1DD
S11353209AA10E94EB3DDC01CB018E0107591F4F6E
S1135330BC01CD010E94053DDC01CB01F801918344
S1135340808324C0CE0185599F4F20E931E0FC01C0
S113535031832083CE0185599F4FFC018081918147
S11353600197F1F79E0125593F4FF90191838083FD
S1135370CE0187599F4F9E0127593F4FF901208144
S1135380318121503109FC0131832083CE018759B9
S11353909F4FFC0180819181892BA1F62CC08E0145
S11353A007591F4FCE018B599F4FFC0160817181BA
S11353B0828193810E94053DDC01CB01F801918338
S11353C08083CE0183599F4F9E0127593F4FF90196
S11353D020813181FC0131832083CE0183599F4F89
S11353E0FC01808191810197F1F79E0123593F4F80
S11353F0F9019183808385E390E020E9FC01208317
S11354008D819E81092E000CAA0BBB0BBC01CD0122
S11354100E94363DDC01CB018BA39CA3ADA3BEA3AC
S11354208E01055A1F4F20E030E04AE755E46BA196
S11354307CA18DA19EA10E94EB3DDC01CB01F80172
S113544080839183A283B383CE01855A9F4F20E04A
S113545030E040E85FE3FC016081718182819381E7
S11354600E94873C88234CF4CE01815A9F4F21E04F
S113547030E0FC013183208369C0CE01855A9F4FFF
S113548020E03FEF4FE757E4FC01608171818281A6
S113549093810E94E63D18160CF046C020E030E0EF
S11354A040E251E46BA17CA18DA19EA10E94EB3D41
S11354B0DC01CB018E01015A1F4FBC01CD010E94BA
S11354C0053DDC01CB01F8019183808324C0CE012A
S11354D08F599F4F20E931E0FC0131832083CE01B5
S11354E08F599F4FFC01808191810197F1F79E01B3
S11354F02F593F4FF90191838083CE01815A9F4FE9
S11355009E01215A3F4FF9012081318121503109F7
S1135510FC0131832083CE01815A9F4FFC0180819D
S11355209181892BA1F62CC08E01015A1F4FCE0107
S1135530855A9F4FFC0160817181828193810E9411
S1135540053DDC01CB01F80191838083CE018D59A7
S11355509F4F9E01215A3F4FF90120813181FC0167
S113556031832083CE018D599F4FFC01808191812D
S11355700197F1F79E012D593F4FF90191838083E3
S113558085E390E020E1FC0120838D819E81092E3A
S1135590000CAA0BBB0BBC01CD010E94363DDC0103
S11355A0CB018FA398A7A9A7BAA78E010F5A1F4FA3
S11355B020E030E04AE755E46FA178A589A59AA5D3
S11355C00E94EB3DDC01CB01F80180839183A2832F
S11355D0B383CE018F5A9F4F20E030E040E85FE371
S11355E0FC0160817181828193810E94873C8823C0
S11355F04CF4CE018B5A9F4F21E030E0FC01318303
S1135600208369C0CE018F5A9F4F20E03FEF4FE7C0
S113561057E4FC0160817181828193810E94E63D9F
S113562018160CF046C020E030E040E251E46FA1CF
S113563078A589A59AA50E94EB3DDC01CB018E01DA
S11356400B5A1F4FBC01CD010E94053DDC01CB016B
S1135650F8019183808324C0CE01895A9F4F20E9A9
S113566031E0FC0131832083CE01895A9F4FFC0134
S1135670808191810197F1F79E01295A3F4FF901E9
S113568091838083CE018B5A9F4F9E012B5A3F4FAB
S1135690F9012081318121503109FC0131832083BA
S11356A0CE018B5A9F4FFC0180819181892BA1F6F9
S11356B02CC08E010B5A1F4FCE018F5A9F4FFC01F5
S11356C060817181828193810E94053DDC01CB015F
S11356D0F80191838083CE01875A9F4F9E012B5AF4
S11356E03F4FF90120813181FC0131832083CE01B8
S11356F0875A9F4FFC01808191810197F1F79E01A8
S1135700275A3F4FF9019183808385E390E020E39A
S1135710FC0120838D819E81092E000CAA0BBB0BFA
S1135720BC01CD010E94363DDC01CB019E012D5B05
S11357303F4FF90180839183A283B3838E01095B78
S11357401F4FCE018D5B9F4F20E030E04AE755E4C8
S1135750FC0160817181828193810E94EB3DDC01B7
S1135760CB01F80180839183A283B383CE01895B4B
S11357709F4F20E030E040E85FE3FC0160817181ED
S1135780828193810E94873C88234CF4CE01855BFF
S11357909F4F21E030E0FC01318320836DC0CE01B6
S11357A0895B9F4F20E03FEF4FE757E4FC016081A6
S11357B07181828193810E94E63D18160CF04AC0E3
S11357C0CE018D5B9F4F20E030E040E251E4FC01CC
S11357D060817181828193810E94EB3DDC01CB0168
S11357E08E01055B1F4FBC01CD010E94053DDC010C
S11357F0CB01F8019183808324C0CE01835B9F4F4A
S113580020E931E0FC0131832083CE01835B9F4F8B
S1135810FC01808191810197F1F79E01235B3F4F49
S1135820F90191838083CE01855B9F4F9E01255BA7
S11358303F4FF9012081318121503109FC0131832D
S11358402083CE01855B9F4FFC0180819181892B50
S1135850A1F62CC08E01055B1F4FCE01895B9F4FC3
S1135860FC0160817181828193810E94053DDC018C
S1135870CB01F80191838083CE01815B9F4F9E0110
S1135880255B3F4FF90120813181FC013183208365
S1135890CE01815B9F4FFC01808191810197F1F7DB
S11358A09E01215B3F4FF9019183808389819A8115
S11358B001969A83898389819A810F970CF4FDC894
S11358C080E090E0A0E2B1E48F839887A987BA874B
S11358D08E010F551F4F20E030E04AE755E46F81F9
S11358E0788589859A850E94EB3DDC01CB01F8011E
S11358F080839183A283B383CE018F559F4F20E091
S113590030E040E85FE3FC01608171818281938132
S11359100E94873C88234CF4CE018B559F4F21E095
S113592030E0FC013183208369C0CE018F559F4F45
S113593020E03FEF4FE757E4FC01608171818281F1
S113594093810E94E63D18160CF046C020E030E03A
S113595040E251E46F81788589859A850E94EB3D08
S1135960DC01CB018E010B551F4FBC01CD010E9400
S1135970053DDC01CB01F8019183808324C0CE0175
S113598089559F4F20E931E0FC0131832083CE010A
S113599089559F4FFC01808191810197F1F79E0108
S11359A029553F4FF90191838083CE018B559F4F39
S11359B09E012B553F4FF90120813181215031093E
S11359C0FC0131832083CE018B559F4FFC018081E4
S11359D09181892BA1F6D5C48E010B551F4FCE01A1
S11359E08F559F4FFC0160817181828193810E9458
S11359F0053DDC01CB01F80191838083CE018755FD
S1135A009F4F9E012B553F4FF90120813181FC01AD
S1135A1031832083CE0187559F4FFC018081918182
S1135A200197F1F79E0127553F4FF9019183808338
S1135A30A8C41C821B82E8C385E390E020E3FC0138
S1135A4020838D819E81092E000CAA0BBB0BBC0107
S1135A50CD010E94363DDC01CB018BAB9CABADABE1
S1135A60BEAB8E010D521F4F20E030E04AE755E4F3
S1135A706BA97CA98DA99EA90E94EB3DDC01CB01F9
S1135A80F80180839183A283B383CE018D529F4F0B
S1135A9020E030E040E85FE3FC01608171818281B5
S1135AA093810E94873C88234CF4CE0189529F4FF6
S1135AB021E030E0FC013183208369C0CE018D52A6
S1135AC09F4F20E03FEF4FE757E4FC016081718175
S1135AD0828193810E94E63D18160CF046C020E0B6
S1135AE030E040E251E46BA97CA98DA99EA90E94F3
S1135AF0EB3DDC01CB018E0109521F4FBC01CD01EE
S1135B000E94053DDC01CB01F8019183808324C010
S1135B10CE0187529F4F20E931E0FC01318320837D
S1135B20CE0187529F4FFC01808191810197F1F74B
S1135B309E0127523F4FF90191838083CE01895200
S1135B409F4F9E0129523F4FF901208131812150FD
S1135B503109FC0131832083CE0189529F4FFC011E
S1135B6080819181892BA1F62CC08E0109521F4F8F
S1135B70CE018D529F4FFC0160817181828193819E
S1135B800E94053DDC01CB01F80191838083CE01A5
S1135B9085529F4F9E0129523F4FF9012081318147
S1135BA0FC0131832083CE0185529F4FFC0180810B
S1135BB091810197F1F79E0125523F4FF90191839D
S1135BC0808385E390E020E9FC0120838D819E8120
S1135BD0092E000CAA0BBB0BBC01CD010E94363D63
S1135BE0DC01CB018FAB98AFA9AFBAAF8E010753DD
S1135BF01F4F20E030E04AE755E46FA978AD89AD46
S1135C009AAD0E94EB3DDC01CB01F80180839183C6
S1135C10A283B383CE0187539F4F20E030E040E856
S1135C205FE3FC0160817181828193810E94873CE2
S1135C3088234CF4CE0183539F4F21E030E0FC01D4
S1135C403183208369C0CE0187539F4F20E03FEF0B
S1135C504FE757E4FC0160817181828193810E9446
S1135C60E63D18160CF046C020E030E040E251E476
S1135C706FA978AD89AD9AAD0E94EB3DDC01CB01F3
S1135C808E0103531F4FBC01CD010E94053DDC0171
S1135C90CB01F8019183808324C0CE0181539F4FAF
S1135CA020E931E0FC0131832083CE0181539F4FF1
S1135CB0FC01808191810197F1F79E0121533F4FAF
S1135CC0F90191838083CE0183539F4F9E01235317
S1135CD03F4FF9012081318121503109FC01318389
S1135CE02083CE0183539F4FFC0180819181892BB6
