:100000000C942A000C946C020C94A6020C94E4024A
:100010000C9447000C9461030C9447000C94470027
:100020000C9447000C944A030C9447000C9433033F
:100030000C9447000C9499030C9447000C944700CF
:100040000C9447000C9447000C9447000C94470014
:100050000C94470011241FBECFE5D8E0DEBFCDBF12
:1000600010E0A0E6B0E0E8EBFCE002C005900D92E5
:10007000A036B107D9F720E0A0E6B0E001C01D929C
:10008000AA37B207E1F70E94B3030C945A060C9406
:100090000000892B39F088B38E7F88BB88B38260DB
:1000A00088BB089588B3816088BB88B38D7F88BB87
:1000B000089588B38E7F88BB88B38D7F88BB0895F1
:1000C0008FEF8ABB84BB08958F929F92AF92BF92AD
:1000D000CF92DF92EF92FF92CF93DF934A015B01C1
:1000E0000197D9F1C0E0D0E088C083E08BBB2FEF4F
:1000F00031EE94E0215030409040E1F700C0000024
:1001000096E09BBB2FEF31EE94E0215030409040C1
:10011000E1F700C000009CE09BBB2FEF31EE94E0C4
:10012000215030409040E1F700C0000099E09BBBB7
:100130002FEF31EE94E0215030409040E1F700C0C5
:1001400000008BBB2FEF31EE84E021503040804027
:10015000E1F700C00000219602C0C0E0D0E0BE017F
:100160000D2E000C880B990B0E9435056B017C014C
:10017000C501B4010E94E5059B01AC01C701B601B0
:100180000E94860488230CF4B0CF4DC083E08BBB63
:100190009FEF21EE34E0915020403040E1F700C065
:1001A000000099E09BBB9FEF21EE34E0915020408E
:1001B0003040E1F700C000009CE09BBB9FEF21EEC8
:1001C00034E0915020403040E1F700C0000096E05C
:1001D0009BBB9FEF21EE34E0915020403040E1F78F
:1001E00000C000008BBB8FEF91EE24E08150904067
:1001F0002040E1F700C000002196BE010D2E000C4A
:10020000880B990B0E9435056B017C01C501B40177
:100210000E94E5059B01AC01C701B6010E9486045E
:1002200088230CF4B3CFDF91CF91FF90EF90DF9054
:10023000CF90BF90AF909F908F9008958F929F9294
:10024000AF92BF92CF92DF92EF92FF92CF93DF9364
:100250004A015B010197D9F1C0E0D0E08EC080E394
:100260008BBB2FEF31EE94E0215030409040E1F70E
:1002700000C0000090E69BBB2FEF31EE94E02150D0
:1002800030409040E1F700C0000090EC9BBB2FEFA6
:1002900031EE94E0215030409040E1F700C0000082
:1002A00090E99BBB2FEF31EE94E02150304090401D
:1002B000E1F700C000008BBB2FEF31EE84E021504E
:1002C00030408040E1F700C00000219602C0C0E04D
:1002D000D0E0BE010D2E000C880B990B0E94350555
:1002E0006B017C01C501B4010E94E5059B01AC01D5
:1002F000C701B6010E94860488230CF4B0CF8FE3B7
:100300009CE90197F1F700C0000053C080E38BBB6C
:100310009FEF21EE34E0915020403040E1F700C0E3
:10032000000090E99BBB9FEF21EE34E0915020400C
:100330003040E1F700C0000090EC9BBB9FEF21EE46
:1003400034E0915020403040E1F700C0000090E6DA
:100350009BBB9FEF21EE34E0915020403040E1F70D
:1003600000C000008BBB8FEF91EE24E081509040E5
:100370002040E1F700C000002196BE010D2E000CC8
:10038000880B990B0E9435056B017C01C501B401F6
:100390000E94E5059B01AC01C701B6010E948604DD
:1003A00088230CF4B3CF8FE39CE90197F1F700C0E9
:1003B0000000DF91CF91FF90EF90DF90CF90BF9042
:1003C000AF909F908F90089581B3826081BB10BCE5
:1003D00089E189B988E98AB98EE080BD08955D9B7D
:1003E000FECF8CB98FE19EE40197F1F700C00000C9
:1003F000089581B3806881BB8BB780648BBF85B75C
:10040000816085BF89B7816089BF13BE87B380646F
:1004100087BB8BB780688BBF85B7846085BF89B782
:10042000846089BF1FBC87B3806887BB8BB780623D
:100430008BBF84B7806484BF89B7806489BF15BCD3
:10044000089588B3806488BB80EA8A95F1F788B301
:100450008F7B88BB80916A0090916B00892BD1F3D0
:1004600080916A0090916B0010926B0010926A006C
:1004700060EA73E00E943206CB010196089588B3CA
:10048000806888BB80EA8A95F1F788B38F7788BB4C
:100490008091680090916900892BD1F36091680088
:1004A000709169001092690010926800072E000C8C
:1004B000880B990B0E94350523E333E349E654E4A6
:1004C0000E948B0420E030E040E85FE30E941A04C1
:1004D0000E94FD04CB0108951F920F920FB60F9258
:1004E00011242F938F939F938091700090917100AE
:1004F000019789F413BE22B780916600909167003E
:10050000820F911D90936D0080936C0012BE10922B
:100510007100109270008091700090917100892B91
:1005200049F483B7816083BF81E090E090937100CC
:100530008093700010926700109266009F918F91D7
:100540002F910F900FBE0F901F9018951F920F9232
:100550000FB60F9211242F933F938F939F93809107
:100560006E0090916F00019799F41EBC2CB53DB5BB
:100570008091600090916100820F931F90936B00B7
:1005800080936A001DBC1CBC10926F0010926E001C
:1005900080916E0090916F00892B49F48EB5816037
:1005A0008EBD81E090E090936F0080936E0010927A
:1005B0006100109260009F918F913F912F910F9059
:1005C0000FBE0F901F9018951F920F920FB60F92AB
:1005D00011242F933F934F935F936F937F938F9348
:1005E0009F93AF93BF93EF93FF9304B606FE07C0AC
:1005F00085B5816085BD84B78F7B84BF1BC015BC6A
:1006000064B570E080E090E00E94350520916200C2
:100610003091630040916400509165000E941A047B
:100620000E94FD04709369006093680014BC84B755
:10063000806484BF10926200109263001092640084
:1006400010926500FF91EF91BF91AF919F918F91B3
:100650007F916F915F914F913F912F910F900FBEBE
:100660000F901F9018951F920F920FB60F921124A2
:100670008F939F93809166009091670093959093DC
:100680006700809366009F918F910F900FBE0F902F
:100690001F9018951F920F920FB60F9211248F93EF
:1006A0009F93809160009091610001979093610009
:1006B000809360009F918F910F900FBE0F901F90BD
:1006C00018951F920F920FB60F9211242F933F93FC
:1006D0004F935F936F937F938F939F93AF93BF934A
:1006E000EF93FF9320E030E040E853E46091620034
:1006F0007091630080916400909165000E941A04DB
:10070000609362007093630080936400909365002F
:10071000FF91EF91BF91AF919F918F917F916F91D9
:100720005F914F913F912F910F900FBE0F901F90AF
:1007300018951F920F920FB60F9211248F939F93CB
:100740008CB190E0909379008093780081E090E004
:1007500090937700809376009F918F910F900FBEBA
:100760000F901F90189510927700109276000E94BB
:10077000F9010E94E4010E9460007894849BFECFFE
:10078000B59B04C082E00E94EF0103C083E00E9499
:10079000EF010E94210290937500809374000E94E3
:1007A0003F02909373008093720060917400709187
:1007B000750063507109072E000C880B990B0E947D
:1007C0003505AB01BC0181E090E00E9464006091BE
:1007D00072007091730063507109072E000C880B32
:1007E000990B0E943505AB01BC0181E090E00E94AD
:1007F0001E01859B0BC0869B09C081E090E00E9492
:1008000049008699FECF0E9459000CC085990AC004
:10081000869908C080E090E00E944900859BFECF49
:100820000E9459008091760090917700892BD1F336
:10083000FFCF5058BB27AA270E9431040C94AB0568
:100840000E949D0538F00E94A40520F039F49F3FD6
:1008500019F426F40C949A050EF4E095E7FB0C9439
:100860009405E92F0E94BC0558F3BA176207730775
:100870008407950720F079F4A6F50C94DE050EF4B4
:10088000E0950B2EBA2FA02D0B01B90190010C01A0
:10089000CA01A0011124FF27591B99F0593F50F4B8
:1008A000503E68F11A16F040A22F232F342F442710
:1008B000585FF3CF469537952795A795F040539508
:1008C000C9F77EF41F16BA0B620B730B840BBAF0D8
:1008D0009150A1F0FF0FBB1F661F771F881FC2F743
:1008E0000EC0BA0F621F731F841F48F48795779557
:1008F0006795B795F7959E3F08F0B0CF9395880F11
:1009000008F09927EE0F9795879508950E94700536
:1009100008F481E008950E949F040C94AB050E94A6
:10092000A40558F00E949D0540F029F45F3F29F08E
:100930000C94940551110C94DF050C949A050E94B7
:10094000BC0568F39923B1F3552391F3951B550B1F
:10095000BB27AA2762177307840738F09F5F5F4F92
:10096000220F331F441FAA1FA9F335D00E2E3AF0D1
:10097000E0E832D091505040E695001CCAF72BD0E9
:10098000FE2F29D0660F771F881FBB1F261737073A
:100990004807AB07B0E809F0BB0B802DBF01FF276C
:1009A00093585F4F3AF09E3F510578F00C949405B0
:1009B0000C94DF055F3FE4F3983ED4F3869577957A
:1009C0006795B795F7959F5FC9F7880F911D969525
:1009D000879597F90895E1E0660F771F881FBB1F81
:1009E000621773078407BA0720F0621B730B840B2E
:1009F000BA0BEE1F88F7E09508950E9404056894ED
:100A0000B1110C94DF0508950E94C40588F09F572A
:100A100098F0B92F9927B751B0F0E1F0660F771F22
:100A2000881F991F1AF0BA95C9F714C0B13091F018
:100A30000E94DE05B1E008950C94DE05672F782F43
:100A40008827B85F39F0B93FCCF3869577956795DD
:100A5000B395D9F73EF490958095709561957F4F49
:100A60008F4F9F4F0895E89409C097FB3EF49095EF
:100A70008095709561957F4F8F4F9F4F9923A9F077
:100A8000F92F96E9BB279395F69587957795679506
:100A9000B795F111F8CFFAF4BB0F11F460FF1BC04A
:100AA0006F5F7F4F8F4F9F4F16C0882311F096E9DD
:100AB00011C0772321F09EE8872F762F05C066238B
:100AC00071F096E8862F70E060E02AF09A95660F44
:100AD000771F881FDAF7880F9695879597F90895FD
:100AE000990F0008550FAA0BE0E8FEEF161617063F
:100AF000E807F907C0F012161306E407F50798F0A7
:100B0000621B730B840B950B39F40A2661F0232BBF
:100B1000242B252B21F408950A2609F4A140A6953B
:100B20008FEF811D811D089597F99F6780E870E020
:100B300060E008959FEF80EC089500240A94161653
:100B4000170618060906089500240A9412161306BB
:100B5000140605060895092E0394000C11F4882349
:100B600052F0BB0F40F4BF2B11F460FF04C06F5F65
:100B70007F4F8F4F9F4F089557FD9058440F551F3B
:100B800059F05F3F71F04795880F97FB991F61F00F
:100B90009F3F79F087950895121613061406551F86
:100BA000F2CF4695F1DF08C0161617061806991FF2
:100BB000F1CF86957105610508940895E894BB27E7
:100BC00066277727CB0197F908950E94C405E8F0BE
:100BD0009E37E8F09639B8F49E3848F4672F782F9E
:100BE0008827985FF9CF869577956795939595397E
:100BF000D0F3B62FB1706B0F711D811D20F4879556
:100C00007795679593950C9409060C9424060C949B
:100C1000DF05882371F4772321F09850872B762FF6
:100C200007C0662311F499270DC09051862B70E000
:100C300060E02AF09A95660F771F881FDAF7880F11
:100C40009695879597F908959F3F31F0915020F43C
:100C5000879577956795B795880F911D9695879598
:100C600097F9089597FB072E16F4009407D077FDA7
:100C700009D00E94460607FC05D03EF49095819568
:100C80009F4F0895709561957F4F0895AA1BBB1BD8
:100C900051E107C0AA1FBB1FA617B70710F0A61B7C
:100CA000B70B881F991F5A95A9F780959095BC019D
:080CB000CD010895F894FFCF77
:00000001FF
