S01800004D6F746F7220636F6E74726F6C6C65722E7372656397
S11300000C942A000C9419020C9461020C94A8021A
S11300100C9447000C9447000C9447000C94470040
S11300200C9447000C9447000C9447000C94470030
S11300300C9447000C94F7020C9447000C9447006E
S11300400C9447000C9447000C9447000C94470010
S11300500C94470011241FBECFE5D8E0DEBFCDBF0E
S113006010E0A0E6B0E0E8EAFAE002C005900D92E4
S1130070A036B107D9F720E0A0E6B0E001C01D9298
S1130080A837B207E1F70E9411030C9452050C94AF
S11300900000892B39F085B38E7F85BB85B38260E0
S11300A085BB089585B3816085BB85B38D7F85BB92
S11300B0089585B38E7F85BB85B38D7F85BB0895F9
S11300C08FEF8ABB84BB08958F929F92AF92BF92A9
S11300D0CF92DF92EF92FF92CF93DF934A015B01BD
S11300E0019709F44CC0C0E0D0E08AC083E08BBB28
S11300F0EFE3FCE93197F1F700C0000092E09BBB0D
S1130100EFE3FCE93197F1F700C0000096E09BBBF8
S1130110EFE3FCE93197F1F700C0000094E09BBBEA
S1130120EFE3FCE93197F1F700C000009CE09BBBD2
S1130130EFE3FCE93197F1F700C0000098E09BBBC6
S1130140EFE3FCE93197F1F700C0000099E09BBBB5
S1130150EFE3FCE93197F1F700C0000091E09BBBAD
S1130160EFE3FCE93197F1F700C000008BBB8FE3AC
S11301709CE90197F1F700C00000219602C0C0E09D
S1130180D0E0BE010D2E000C880B990B0E942D04AB
S11301906B017C01C501B4010E94DD049B01AC012B
S11301A0C701B6010E947E0388230CF49FCF3DC093
S11301B083E08BBBEFE3FCE93197F1F700C000006B
S11301C099E09BBBEFE3FCE93197F1F700C0000035
S11301D09CE09BBBEFE3FCE93197F1F700C0000022
S11301E096E09BBBEFE3FCE93197F1F700C0000018
S11301F08BBB8FE39CE90197F1F700C000002196C7
S1130200BE010D2E000C880B990B0E942D046B016E
S11302107C01C501B4010E94DD049B01AC01C7014E
S1130220B6010E947E0388231CF2DF91CF91FF90D8
S1130230EF90DF90CF90BF90AF909F908F900895F4
S1130240019709F44CC080E090E07EC020E32BBB12
S1130250EFE3FCE93197F1F700C0000030E23BBB6B
S1130260EFE3FCE93197F1F700C0000030E63BBB57
S1130270EFE3FCE93197F1F700C0000030E43BBB49
S1130280EFE3FCE93197F1F700C0000030EC3BBB31
S1130290EFE3FCE93197F1F700C0000030E83BBB25
S11302A0EFE3FCE93197F1F700C0000030E93BBB14
S11302B0EFE3FCE93197F1F700C0000030E13BBB0C
S11302C0EFE3FCE93197F1F700C000002BBBEFE34B
S11302D0FCE93197F1F700C00000019602C080E00C
S11302E090E0823391050CF4B1CF8FE39CE9019740
S11302F0F1F700C00000089520E32BBBEFE3FCE915
S11303003197F1F700C0000030E93BBBEFE3FCE9B3
S11303103197F1F700C0000030EC3BBBEFE3FCE9A0
S11303203197F1F700C0000030E63BBBEFE3FCE996
S11303303197F1F700C000002BBBEFE3FCE93197E4
S1130340F1F700C00000019682339105ACF28FE30F
S11303509CE90197F1F700C00000089581B3826021
S113036081BB10BC89E189B988E98AB98EE080BD76
S113037008955D9BFECF8CB98FE19EE40197F1F760
S113038000C00000089581B3806881BB81B38B7F76
S113039081BB8BB780648BBF85B7816085BF1FBC71
S11303A087B3806487BB87B3877F87BB8BB780683D
S11303B08BBF85B7846085BF13BE87B3806887BB56
S11303C087B38B7F87BB8BB780628BBF84B7806416
S11303D084BF15BC089588B3806488BB20E52A9542
S11303E0F1F788B38F7B88BB8FEF93ED20E38150C7
S11303F090402040E1F700C000008091620090919D
S11304006300089588B3806888BB20E52A95F1F7D6
S113041088B38F7788BB8FEF93ED20E381509040B2
S11304202040E1F700C000008091600090916100DD
S113043008951F920F920FB60F9211245F936F933A
S11304407F938F939F93AF93BF9380916C00909110
S11304506D00892B49F48EB581608EBD81E090E0FA
S113046090936D0080936C0080916C0090916D006E
S11304700197D9F41EBC8CB59DB590936F00809301
S11304806E001DBC1CBC80916E0090916F006AE3ED
S113049070E00E942A056F5F7F4F70936500609340
S11304A0640010926D0010926C00BF91AF919F9107
S11304B08F917F916F915F910F900FBE0F901F905E
S11304C018951F920F920FB60F9211245F936F939A
S11304D07F938F939F93AF93BF9380916800909184
S11304E06900892B49F483B7816083BF81E090E080
S11304F090936D0080936C008091680090916900E6
S11305000197D1F413BE82B790E090936B0080936F
S11305106A0012BE80916A0090916B006AE370E0F9
S11305200E942A056F5F7F4F70936300609362009F
S11305301092690010926800BF91AF919F918F91C2
S11305407F916F915F910F900FBE0F901F90189540
S11305501F920F920FB60F9211242F933F934F9334
S11305605F936F937F938F939F93AF93BF93EF9317
S1130570FF9304B606FE07C085B5816085BD84B7C8
S11305808F7B84BF23C015BC84B590E09093670033
S1130590809366006091660070916700072E000CDE
S11305A0880B990B0E942D0423E333E349E652E4BC
S11305B00E9483030E94DD040E94F503709361008E
S11305C06093600014BC84B7806484BFFF91EF9192
S11305D0BF91AF919F918F917F916F915F914F9157
S11305E03F912F910F900FBE0F901F9018951F925F
S11305F00F920FB60F9211248F939F938CB190E0BA
S1130600909377008093760081E090E0909375005A
S1130610809374009F918F910F900FBE0F901F9045
S1130620189510927500109274000E94C3010E94E4
S1130630AE010E9460007894849BFECFB59B04C0F9
S113064082E00E94B90103C083E00E94B9010E94C4
S1130650EB0190937300809372000E9402029093C6
S11306607100809370006091720070917300072E86
S1130670000C880B990B0E942D04AB01BC0181E096
S113068090E00E9464006091700070917100072EE8
S1130690000C880B990B0E942D04AB01BC0181E076
S11306A090E00E9420010E94EB01039724F00E9435
S11306B002020397C4F7859B0DC080B3882351F0D1
S11306C081E090E00E94490080B38111FDCF0E9437
S11306D059000DC085990BC080B3811108C080E01A
S11306E090E00E944900859BFECF0E9459008091B2
S11306F0740090917500892BD1F3FFCF0E94680498
S113070008F481E008950E9497030C94A3040E94C6
S11307109C0458F00E94950440F029F45F3F29F0AE
S11307200C948C0451110C94D7040C9492040E94E0
S1130730B40468F39923B1F3552391F3951B550B36
S1130740BB27AA2762177307840738F09F5F5F4FA0
S1130750220F331F441FAA1FA9F335D00E2E3AF0DF
S1130760E0E832D091505040E695001CCAF72BD0F7
S1130770FE2F29D0660F771F881FBB1F2617370748
S11307804807AB07B0E809F0BB0B802DBF01FF277A
S113079093585F4F3AF09E3F510578F00C948C04C7
S11307A00C94D7045F3FE4F3983ED4F38695779591
S11307B06795B795F7959F5FC9F7880F911D969533
S11307C0879597F90895E1E0660F771F881FBB1F8F
S11307D0621773078407BA0720F0621B730B840B3C
S11307E0BA0BEE1F88F7E09508950E94FC03689405
S11307F0B1110C94D70408950E94BC0488F09F574B
S113080098F0B92F9927B751B0F0E1F0660F771F30
S1130810881F991F1AF0BA95C9F714C0B13091F026
S11308200E94D604B1E008950C94D604672F782F63
S11308308827B85F39F0B93FCCF3869577956795EB
S1130840B395D9F73EF490958095709561957F4F57
S11308508F4F9F4F0895E89409C097FB3EF49095FD
S11308608095709561957F4F8F4F9F4F9923A9F085
S1130870F92F96E9BB279395F69587957795679514
S1130880B795F111F8CFFAF4BB0F11F460FF1BC058
S11308906F5F7F4F8F4F9F4F16C0882311F096E9EB
S11308A011C0772321F09EE8872F762F05C0662399
S11308B071F096E8862F70E060E02AF09A95660F52
S11308C0771F881FDAF7880F9695879597F908950B
S11308D0990F0008550FAA0BE0E8FEEF161617064D
S11308E0E807F907C0F012161306E407F50798F0B5
S11308F0621B730B840B950B39F40A2661F0232BCE
S1130900242B252B21F408950A2609F4A140A69549
S11309108FEF811D811D089597F99F6780E870E02E
S113092060E008959FEF80EC089500240A94161661
S1130930170618060906089500240A9412161306C9
S1130940140605060895092E0394000C11F4882357
S113095052F0BB0F40F4BF2B11F460FF04C06F5F73
S11309607F4F8F4F9F4F089557FD9058440F551F49
S113097059F05F3F71F04795880F97FB991F61F01D
S11309809F3F79F087950895121613061406551F94
S1130990F2CF4695F1DF08C0161617061806991F00
S11309A0F1CF86957105610508940895E894BB27F5
S11309B066277727CB0197F908950E94BC04E8F0D5
S11309C09E37E8F09639B8F49E3848F4672F782FAC
S11309D08827985FF9CF869577956795939595398C
S11309E0D0F3B62FB1706B0F711D811D20F4879564
S11309F07795679593950C9401050C941C050C94BC
S1130A00D704882371F4772321F09850872B762F0D
S1130A1007C0662311F499270DC09051862B70E00E
S1130A2060E02AF09A95660F771F881FDAF7880F1F
S1130A309695879597F908959F3F31F0915020F44A
S1130A40879577956795B795880F911D96958795A6
S1130A5097F9089597FB072E16F4009407D077FDB5
S1130A6009D00E943E0507FC05D03EF4909581957F
S1130A709F4F0895709561957F4F0895AA1BBB1BE6
S1130A8051E107C0AA1FBB1FA617B70710F0A61B8A
S1130A90B70B881F991F5A95A9F780959095BC01AB
S10B0AA0CD010895F894FFCF85
S9030000FC
