S01800004D6F746F7220636F6E74726F6C6C65722E7372656397
S11300000C942A000C94B6080C94F0080C942E0955
S11300100C9447000C94AB090C9447000C944700D3
S11300200C9447000C9494090C9447000C947D099B
S11300300C9447000C94E3090C9447000C9447007B
S11300400C9447000C9447000C9447000C94470010
S11300500C94470011241FBECFE5D8E0DEBFCDBF0E
S113006010E0A0E6B0E0E4EFF9E102C005900D92E3
S1130070A636B107D9F720E0A6E6B0E001C01D928C
S1130080A638B207E1F70E94FD090C94F80C0C9411
S1130090000087B3836087BB0895892B39F088B348
S11300A08E7F88BB88B3826088BB089588B38160E3
S11300B088BB88B38D7F88BB089588B38E7F88BB47
S11300C088B38D7F88BB08958FEF8ABB84BB089566
S11300D0AC0118161906E4F180E090E076C093E0D4
S11300E09BBB6FEF71EE84E0615070408040E1F79C
S11300F000C0000086E08BBB6FEF71EE84E06150BE
S113010070408040E1F700C000008CE08BBB6FEFD3
S113011071EE84E0615070408040E1F700C000005F
S113012089E08BBB6FEF71EE84E0615070408040DA
S1130130E1F700C000009BBB9FEF61EE74E09150BB
S113014060407040E1F700C000002F5F3F4F02C0E5
S113015020E030E02417350714F2089523E02BBB88
S11301603FEF61EE74E0315060407040E1F700C051
S1130170000039E03BBB3FEF61EE74E0315060407A
S11301807040E1F700C000003CE03BBB3FEF61EE94
S113019074E0315060407040E1F700C0000036E088
S11301A03BBB3FEF61EE74E0315060407040E1F7DB
S11301B000C000002BBB2FEF31EE64E02150304033
S11301C06040E1F700C0000001969A01552324F431
S11301D022273327241B350B821793070CF4BECF39
S11301E00895AC0118161906E4F180E090E07CC093
S11301F090E39BBB6FEF71EE84E0615070408040F0
S1130200E1F700C0000080E68BBB6FEF71EE84E085
S1130210615070408040E1F700C0000080EC8BBB6F
S11302206FEF71EE84E0615070408040E1F700C0F0
S1130230000080E98BBB6FEF71EE84E06150704089
S11302408040E1F700C000009BBB9FEF61EE74E0CB
S1130250915060407040E1F700C000002F5F3F4FB5
S113026002C020E030E02417350714F28FE39CE944
S11302700197F1F700C00000089520E32BBB3FEF86
S113028061EE74E0315060407040E1F700C000005E
S113029030E93BBB3FEF61EE74E0315060407040A9
S11302A0E1F700C0000030EC3BBB3FEF61EE74E0CF
S11302B0315060407040E1F700C0000030E63BBBC5
S11302C03FEF61EE74E0315060407040E1F700C0F0
S11302D000002BBB2FEF31EE64E021503040604032
S11302E0E1F700C0000001969A01552324F4222767
S11302F03327241B350B821793070CF4BECF8FE3EF
S11303009CE90197F1F700C000000895AC011816AC
S11303101906E4F180E090E07CC093E095BB6FEFB8
S113032071EE84E0615070408040E1F700C000004D
S113033086E085BB6FEF71EE84E0615070408040D1
S1130340E1F700C000008CE085BB6FEF71EE84E044
S1130350615070408040E1F700C0000089E085BB37
S11303606FEF71EE84E0615070408040E1F700C0AF
S1130370000095BB9FEF61EE74E0915060407040C7
S1130380E1F700C000002F5F3F4F02C020E030E0E3
S11303902417350714F28FE39CE90197F1F700C0A5
S11303A00000089523E025BB3FEF61EE74E0315077
S11303B060407040E1F700C0000039E035BB3FEF1A
S11303C061EE74E0315060407040E1F700C000001D
S11303D03CE035BB3FEF61EE74E03150604070406B
S11303E0E1F700C0000036E035BB3FEF61EE74E09A
S11303F0315060407040E1F700C0000025BB2FEF92
S113040031EE64E0215030406040E1F700C000006C
S113041001969A01552324F422273327241B350BF4
S1130420821793070CF4BECF8FE39CE90197F1F791
S113043000C0000008950197B9F480E385BB2FEF55
S113044081EE94E0215080409040E1F700C000002C
S113045080E685BB2FEF81EE94E0215080409040F0
S1130460E1F700C00000089580E685BB2FEF81EE20
S113047094E0215080409040E1F700C0000080E308
S113048085BB2FEF81EE94E0215080409040E1F74E
S113049000C000000895181619060CF068C116165D
S11304A017060CF064C19C01261B370BA90122F42A
S11304B044275527421B530B68177907CCF187C093
S11304C023E32BBB3FEFA1EEB4E03150A040B0409A
S11304D0E1F700C0000036E63BBBEFEFF1EE34E09D
S11304E0E150F0403040E1F700C000003CEC3BBB81
S11304F0AFEFB1EEE4E0A150B040E040E1F700C05E
S1130500000039E93BBBFFEF31EEA4E0F15030408D
S1130510A040E1F700C000002BBBBFEFE1EEF4E028
S1130520B150E040F040E1F700C00000019602C085
S113053080E090E0861797071CF28FE39CE901970F
S1130540F1F700C0000080E090E037C023E02BBB4F
S1130550AFEFB1EEE4E0A150B040E040E1F700C0FD
S1130560000036E03BBBFFEF31EE64E0F150304079
S11305706040E1F700C000003CE03BBB7FEFA1EE30
S1130580B4E07150A040B040E1F700C0000039E091
S11305903BBBEFEFF1EE34E0E150F0403040E1F7E7
S11305A000C000002BBB6FEF71EEA4E061507040FF
S11305B0A040E1F700C0000001968417950734F2CB
S11305C0EFE3FCE93197F1F700C0000008958617C6
S11305D09707E4F120E030E0C0C063E36BBBFFEFBA
S11305E071EEA4E0F1507040A040E1F700C00000BB
S11305F076E67BBBBFEFE1EEF4E0B150E040F040C3
S1130600E1F700C000007CEC7BBB7FEFA1EEB4E01F
S11306107150A040B040E1F700C0000079E97BBB15
S1130620EFEFF1EE74E0E150F0407040E1F700C00C
S113063000006BBBAFEFB1EEE4E0A150B040E0408E
S1130640E1F700C000002F5F3F4F02C020E030E020
S11306502817390714F28FE39CE90197F1F700C0DA
S1130660000080E090E037C020E32BBBAFEFB1EE99
S1130670E4E0A150B040E040E1F700C0000030E603
S11306803BBBFFEF31EE64E0F15030406040E1F7F6
S113069000C0000030EC3BBB7FEFA1EEB4E0715032
S11306A0A040B040E1F700C0000030E93BBBEFEFF1
S11306B0F1EE34E0E150F0403040E1F700C00000DA
S11306C02BBB6FEF71EEA4E061507040A040E1F7E6
S11306D000C0000001968417950734F2EFE3FCE9AB
S11306E03197F1F700C00000089543E34BBBFFEFDF
S11306F051EE64E0F15050406040E1F700C000006A
S113070056E65BBB7FEFA1EEB4E07150A040B04071
S1130710E1F700C000005CEC5BBBEFEFF1EE54E0EE
S1130720E150F0405040E1F700C0000059E95BBBE4
S11307306FEF71EEA4E061507040A040E1F700C09B
S113074000004BBBBFEFE1EEF4E0B150E040F040FD
S1130750E1F700C000002F5F3F4F281739072CF244
S11307608FE39CE90197F1F700C0000008959923F5
S11307700CF075C177230CF072C19C01261B370B5A
S1130780A90122F444275527421B530BFC0199234A
S113079024F4EE27FF27E81BF90B9B01772324F4AD
S11307A022273327261B370BB9012E173F07CCF11D
S11307B087C023E32BBBAFEFB1EEE4E0A150B04020
S11307C0E040E1F700C0000039E93BBBFFEF31EE48
S11307D0A4E0F1503040A040E1F700C000003CEC40
S11307E03BBBBFEFE1EEF4E0B150E040F040E1F795
S11307F000C0000036E63BBB3FEFA1EEB4E0315051
S1130800A040B040E1F700C000002BBBEFEFF1EED9
S113081024E0E150F0402040E1F700C000000196E0
S113082002C080E090E0861797071CF28FE39CE9F2
S11308300197F1F700C0000080E090E037C023E0AA
S11308402BBBAFEFB1EEE4E0A150B040E040E1F7E4
S113085000C0000039E03BBBFFEF31EE64E0F15033
S113086030406040E1F700C000003CE03BBB7FEF5C
S1130870A1EEB4E07150A040B040E1F700C0000028
S113088036E03BBBEFEFF1EE34E0E150F0403040B6
S1130890E1F700C000002BBB6FEF71EEA4E06150E4
S11308A07040A040E1F700C000000196841795074E
S11308B034F2EFE3FCE93197F1F700C0000008954A
S11308C0E217F307DCF120E030E0BFC023E32BBBE9
S11308D03FEF61EE74E0315060407040E1F700C0DA
S11308E0000039E93BBBAFEFB1EE34E0A150B040BA
S11308F03040E1F700C000003CEC3BBB6FEF71EE11
S1130900A4E061507040A040E1F700C0000036E66A
S11309103BBBBFEF31EE64E0B15030406040E1F7E3
S113092000C000002BBB7FEFA1EEB4E07150A040EB
S1130930B040E1F700C00000019602C080E090E002
S11309408E179F071CF2EFE3FCE93197F1F700C023
S1130950000080E090E037C020E32BBBFFEF31EED6
S113096064E0F15030406040E1F700C0000030E93D
S11309703BBB7FEFA1EEB4E07150A040B040E1F783
S113098000C0000030EC3BBBEFEFF1EE34E0E1508F
S1130990F0403040E1F700C0000030E63BBB6FEFB1
S11309A071EEA4E061507040A040E1F700C0000087
S11309B02BBBBFEFE1EEF4E0B150E040F040E1F7D3
S11309C000C0000001968417950734F28FE39CE978
S11309D00197F1F700C00000089543E34BBBAFEF6C
S11309E0B1EEE4E0A150B040E040E1F700C0000007
S11309F059E95BBBFFEF51EE64E0F15050406040B9
S1130A00E1F700C000005CEC5BBB7FEFA1EEB4E05B
S1130A107150A040B040E1F700C0000056E65BBB57
S1130A20EFEFF1EE54E0E150F0405040E1F700C048
S1130A3000004BBB6FEF71EEA4E061507040A0402A
S1130A40E1F700C000002F5F3F4F281739072CF251
S1130A50EFE3FCE93197F1F700C0000008951816A0
S1130A6019060CF070C177230CF06DC19C01992319
S1130A7024F422273327281B390BAB01772324F4D2
S1130A8044275527461B570BBA01D901A41BB50BA4
S1130A90AD0162177307CCF187C023E32BBBBFEF13
S1130AA0E1EEF4E0B150E040F040E1F700C00000B6
S1130AB036E93BBB3FEFA1EEB4E03150A040B0407B
S1130AC0E1F700C000003CEC3BBBEFEFF1EE34E09B
S1130AD0E150F0403040E1F700C0000039E63BBB94
S1130AE0AFEFB1EEE4E0A150B040E040E1F700C068
S1130AF000002BBBFFEF21EE34E0F15020403040EA
S1130B00E1F700C00000019602C080E090E0861783
S1130B1097071CF28FE39CE90197F1F700C00000EE
S1130B2080E090E037C023E02BBBAFEFB1EEE4E010
S1130B30A150B040E040E1F700C0000036E03BBB0C
S1130B40FFEF31EE64E0F15030406040E1F700C067
S1130B5000003CE03BBB7FEFA1EEB4E07150A0404D
S1130B60B040E1F700C0000039E03BBBEFEFF1EE2D
S1130B7034E0E150F0403040E1F700C000002BBB0E
S1130B806FEF71EEA4E061507040A040E1F700C047
S1130B90000001968417950734F2EFE3FCE93197DE
S1130BA0F1F700C00000089526173707DCF120E0B4
S1130BB030E0BFC063E36BBBFFEF71EEA4E0F15024
S1130BC07040A040E1F700C0000076E97BBBBFEFB6
S1130BD0E1EEF4E0B150E040F040E1F700C0000085
S1130BE07CEC7BBB7FEFA1EEB4E07150A040B04041
S1130BF0E1F700C0000079E67BBBEFEFF1EE74E0B3
S1130C00E150F0407040E1F700C000006BBBAFEF73
S1130C10B1EEE4E0A150B040E040E1F700C00000D4
S1130C20019602C080E090E0821793071CF28FE3E4
S1130C309CE90197F1F700C0000080E090E037C024
S1130C4020E32BBBAFEFB1EEE4E0A150B040E040B5
S1130C50E1F700C0000030E93BBBFFEF31EE64E098
S1130C60F15030406040E1F700C0000030EC3BBB85
S1130C707FEFA1EEB4E07150A040B040E1F700C0B6
S1130C80000030E63BBBEFEFF1EE34E0E150F04022
S1130C903040E1F700C000002BBB6FEF71EEA4E021
S1130CA061507040A040E1F700C000000196841735
S1130CB0950734F2EFE3FCE93197F1F700C0000047
S1130CC0089543E34BBBFFEF51EE64E0F150504015
S1130CD06040E1F700C0000056E95BBB7FEFA1EE86
S1130CE0B4E07150A040B040E1F700C000005CECFB
S1130CF05BBBEFEFF1EE54E0E150F0405040E1F720
S1130D0000C0000059E65BBB6FEF71EEA4E06150D8
S1130D107040A040E1F700C000004BBBBFEFE1EE24
S1130D20F4E0B150E040F040E1F700C000002F5F74
S1130D303F4F281739072CF28FE39CE90197F1F70D
S1130D4000C0000008959C01992324F4222733272E
S1130D50281B390BAB01772324F444275527461B62
S1130D60570BFA01D901A41BB50BAD01E217F30728
S1130D70CCF187C023E32BBBBFEFE1EEF4E0B1502D
S1130D80E040F040E1F700C0000039E63BBB3FEF34
S1130D90A1EEB4E03150A040B040E1F700C0000043
S1130DA03CEC3BBBEFEFF1EE34E0E150F04030407F
S1130DB0E1F700C0000036E93BBBAFEFB1EEE4E081
S1130DC0A150B040E040E1F700C000002BBBFFEFB2
S1130DD021EE34E0F15020403040E1F700C0000043
S1130DE0019602C080E090E0861797071CF28FE31B
S1130DF09CE90197F1F700C0000080E090E037C063
S1130E0023E02BBBAFEFB1EEE4E0A150B040E040F3
S1130E10E1F700C0000039E03BBBFFEF31EE64E0D6
S1130E20F15030406040E1F700C000003CE03BBBC3
S1130E307FEFA1EEB4E07150A040B040E1F700C0F4
S1130E40000036E03BBBEFEFF1EE34E0E150F04060
S1130E503040E1F700C000002BBB6FEF71EEA4E05F
S1130E6061507040A040E1F700C000000196841773
S1130E70950734F2EFE3FCE93197F1F700C0000085
S1130E8008952E173F07DCF120E030E0BFC063E394
S1130E906BBBFFEF71EEA4E0F1507040A040E1F7AE
S1130EA000C0000079E67BBBBFEFE1EEF4E0B15097
S1130EB0E040F040E1F700C000007CEC7BBB7FEF3A
S1130EC0A1EEB4E07150A040B040E1F700C00000D2
S1130ED076E97BBBEFEFF1EE74E0E150F040704057
S1130EE0E1F700C000006BBBAFEFB1EEE4E0A1504E
S1130EF0B040E040E1F700C00000019602C080E08D
S1130F0090E0821793071CF28FE39CE90197F1F7B5
S1130F1000C0000080E090E037C020E32BBBAFEFBF
S1130F20B1EEE4E0A150B040E040E1F700C00000C1
S1130F3030E63BBBFFEF31EE64E0F15030406040FF
S1130F40E1F700C0000030EC3BBB7FEFA1EEB4E062
S1130F507150A040B040E1F700C0000030E93BBB55
S1130F60EFEFF1EE34E0E150F0403040E1F700C043
S1130F7000002BBB6FEF71EEA4E061507040A04005
S1130F80E1F700C0000001968417950734F2EFE3FF
S1130F90FCE93197F1F700C00000089543E34BBB2F
S1130FA0FFEF51EE64E0F15050406040E1F700C0C3
S1130FB0000059E65BBB7FEFA1EEB4E07150A040A6
S1130FC0B040E1F700C000005CEC5BBBEFEFF1EE7A
S1130FD054E0E150F0405040E1F700C0000056E911
S1130FE05BBB6FEF71EEA4E061507040A040E1F78D
S1130FF000C000004BBBBFEFE1EEF4E0B150E040B5
S1131000F040E1F700C000002F5F3F4F2817390779
S11310102CF28FE39CE90197F1F700C000000895DA
S113102081B3826081BB10BC89E189B988E98AB93E
S11310308EE080BD08955D9BFECF8CB98FE19EE468
S11310400197F1F700C00000089581B3806881BB67
S11310508BB780648BBF85B7816085BF89B781609A
S113106089BF13BE87B3806487BB8BB780688BBF8F
S113107085B7846085BF89B7846089BF1FBC87B387
S1131080806887BB8BB780628BBF84B7806484BF62
S113109089B7806489BF15BC089582B3806882BB18
S11310A080EA8A95F1F782B38F7782BB80917200D0
S11310B090917300892BD1F3809172009091730009
S11310C010927300109272006AE370E00E94D00CD8
S11310D0CB010196089588B3806488BB80EA8A9521
S11310E0F1F788B38F7B88BB809170009091710079
S11310F0892BD1F38091700090917100109271004E
S11311001092700060EA73E00E94D00CCB0101964B
S1131110089588B3806888BB80EA8A95F1F788B31C
S11311208F7788BB80916E0090916F00892BD1F3EB
S113113060916E0070916F0010926F0010926E00BB
S1131140072E000C880B990B0E94440C23E333E315
S113115049E654E40E949A0B20E030E040E85FE363
S11311600E942E0B0E940C0CCB0108951F920F922B
S11311700FB60F9211242F938F939F938091760033
S113118090917700019789F413BE22B780916C0087
S113119090916D00820F911D909373008093720063
S11311A012BE109277001092760080917600909192
S11311B07700892B49F483B7816083BF81E090E095
S11311C0909377008093760010926D0010926C00DB
S11311D09F918F912F910F900FBE0F901F90189594
S11311E01F920F920FB60F9211242F933F938F9358
S11311F09F938091740090917500019799F41EBC9F
S11312002CB53DB58091660090916700820F931FC5
S113121090937100809370001DBC1CBC10927500EB
S1131220109274008091740090917500892B49F498
S11312308EB581608EBD81E090E0909375008093BF
S1131240740010926700109266009F918F913F91F5
S11312502F910F900FBE0F901F9018951F920F9211
S11312600FB60F9211242F933F934F935F936F9375
S11312707F938F939F93AF93BF93EF93FF9304B6A2
S113128006FE07C085B5816085BD84B78F7B84BFAA
S11312901BC015BC64B570E080E090E00E94440C73
S11312A0209168003091690040916A0050916B0070
S11312B00E942E0B0E940C0C70936F0060936E00C2
S11312C014BC84B7806484BF1092680010926900D3
S11312D010926A0010926B00FF91EF91BF91AF9151
S11312E09F918F917F916F915F914F913F912F913A
S11312F00F900FBE0F901F9018951F920F920FB66C
S11313000F9211248F939F9380916C0090916D00A4
S1131310939590936D0080936C009F918F910F90A3
S11313200FBE0F901F9018951F920F920FB60F9239
S113133011248F939F938091660090916700019789
S113134090936700809366009F918F910F900FBEDA
S11313500F901F9018951F920F920FB60F921124A1
S11313602F933F934F935F936F937F938F939F93A9
S1131370AF93BF93EF93FF9320E030E040E853E452
S1131380609168007091690080916A0090916B008F
S11313900E942E0B609368007093690080936A002A
S11313A090936B00FF91EF91BF91AF919F918F91BB
S11313B07F916F915F914F913F912F910F900FBE4D
S11313C00F901F9018951F920F920FB60F92112431
S11313D08F939F938CB190E09093850080938400C9
S11313E081E090E090937D0080937C009F918F91A9
S11313F00F900FBE0F901F9018950E9425080E9411
S113140010080E9464000E9449007894849BFECFD7
S1131410B59B06C082E00E941B0801E010E005C0F5
S113142083E00E941B0800E010E00E946B08909388
S11314308100809380000E94890890937F008093AC
S11314407E0060917E0070917F0080918000909179
S113145081006350710903970E944B02859B0BC066
S1131460869B09C081E090E00E944D008699FECFE2
S11314700E945D000CC085990AC0869908C080E06E
S113148090E00E944D00859BFECF0E945D008091FC
S11314907C0090917D00892BD1F380918400909100
S11314A0850090937900809378002FEF83ED90E38B
S11314B0215080409040E1F700C0000080918400FA
S11314C09091850090937B0080937A0010927D0028
S11314D010927C00C0E0D0E065C0809160009091E3
S11314E06100919581959109BC010E944B0280E0B5
S11314F090E00E944D000E944D080497E4F70E947A
S11315006B0890938100809380000E9489089093D7
S11315107F0080937E0060917E0070917F008091B7
S11315208000909181006350710903970E944B02DF
S11315300E944D08909383008093820081E090E0A4
S11315400E944D0002C00E945D000E944D0820913F
S1131550820030918300821B930B2091780030919C
S11315607900821793077CF3809160009091610069
S11315700E94860181E00E941B0881E090E00E94A5
S11315801B0280E090E00E941B0280916000909119
S113159061009195819591090E94860180E00E94E5
S11315A01B08219680917A0090917B00C817D90777
S11315B00CF493CF84992ACF0E944D089093830012
S11315C08093820080E090E00E944D000E944D08CC
S11315D02091820030918300821B930B2091640040
S11315E030916500281739078CF30E945D00012BA8
S11315F0D1F08091620090916300BC019195819536
S113160091090E944B028091620090916300919530
S1131610819591090E94F10080916200909163008C
S11316200E946800F3CE8091620090916300662767
S11316307727681B790B0E944B028091620090917E
S113164063009195819591090E94680080916200E0
S1131650909163000E94F100D9CE5058BB27AA276D
S11316600E94450B0C94960C0E94880C38F00E9442
S11316708F0C20F039F49F3F19F426F40C94850C58
S11316800EF4E095E7FB0C947F0CE92F0E94A70C65
S113169058F3BA17620773078407950720F079F4A3
S11316A0A6F50C94C90C0EF4E0950B2EBA2FA02DC0
S11316B00B01B90190010C01CA01A0011124FF27FB
S11316C0591B99F0593F50F4503E68F11A16F040F6
S11316D0A22F232F342F4427585FF3CF46953795F5
S11316E02795A795F0405395C9F77EF41F16BA0BBA
S11316F0620B730B840BBAF09150A1F0FF0FBB1F68
S1131700661F771F881FC2F70EC0BA0F621F731FB0
S1131710841F48F4879577956795B795F7959E3F0D
S113172008F0B0CF9395880F08F09927EE0F97959E
S1131730879508950E94AE0B0C94960C0E948F0C12
S113174058F00E94880C40F029F45F3F29F00C9473
S11317507F0C51110C94CA0C0C94850C0E94A70C9C
S113176068F39923B1F3552391F3951B550BBB27CC
S1131770AA2762177307840738F09F5F5F4F220F11
S1131780331F441FAA1FA9F335D00E2E3AF0E0E808
S113179032D091505040E695001CCAF72BD0FE2F52
S11317A029D0660F771F881FBB1F261737074807E6
S11317B0AB07B0E809F0BB0B802DBF01FF2793589E
S11317C05F4F3AF09E3F510578F00C947F0C0C94D7
S11317D0CA0C5F3FE4F3983ED4F3869577956795FA
S11317E0B795F7959F5FC9F7880F911D96958795D3
S11317F097F90895E1E0660F771F881FBB1F6217F2
S113180073078407BA0720F0621B730B840BBA0BAF
S1131810EE1F88F7E09508950E94130C6894B111A7
S11318200C94CA0C08950E94AF0C88F09F5798F04E
S1131830B92F9927B751B0F0E1F0660F771F881FD1
S1131840991F1AF0BA95C9F714C0B13091F00E94EB
S1131850C90CB1E008950C94C90C672F782F882720
S1131860B85F39F0B93FCCF3869577956795B39512
S1131870D9F73EF490958095709561957F4F8F4F81
S11318809F4F0895E89409C097FB3EF49095809586
S1131890709561957F4F8F4F9F4F9923A9F0F92F32
S11318A096E9BB279395F695879577956795B795B0
S11318B0F111F8CFFAF4BB0F11F460FF1BC06F5F96
S11318C07F4F8F4F9F4F16C0882311F096E911C0A8
S11318D0772321F09EE8872F762F05C0662371F0C9
S11318E096E8862F70E060E02AF09A95660F771FDD
S11318F0881FDAF7880F9695879597F9089597F9D1
S11319009F6780E870E060E008959FEF80EC0895A1
S113191000240A94161617061806090608950024CA
S11319200A9412161306140605060895092E039444
S1131930000C11F4882352F0BB0F40F4BF2B11F4B8
S113194060FF04C06F5F7F4F8F4F9F4F089557FD17
S11319509058440F551F59F05F3F71F04795880F19
S113196097FB991F61F09F3F79F0879508951216B0
S113197013061406551FF2CF4695F1DF08C016165C
S113198017061806991FF1CF86957105610508940D
S11319900895E894BB2766277727CB0197F9089524
S11319A097FB072E16F4009407D077FD09D00E9408
S11319B0E40C07FC05D03EF4909581959F4F089563
S11319C0709561957F4F0895AA1BBB1B51E107C019
S11319D0AA1FBB1FA617B70710F0A61BB70B881FBB
S11319E0991F5A95A9F780959095BC01CD0108954A
S10719F0F894FFCF95
S10919F4190014000A00B2
S9030000FC
