S01D00005573657220496E70757420436F6E74726F6C6C65722E73726563F4
S11300000C942A000C9447000C9447000C9447006D
S11300100C9447000C9447000C9447000C94470040
S11300200C9447000C9447000C9447000C94470030
S11300300C9447000C9484010C9447000C944700E2
S11300400C9447000C9447000C9447000C94470010
S11300500C94470011241FBECFE5D8E0DEBFCDBF0E
S113006010E0A0E6B0E0E8EEF5E002C005900D92E5
S1130070A43AB107D9F720E0A4EAB0E001C01D9288
S1130080AD3AB207E1F70E94C6010C94F2020C9457
S113009000008CBF089588B3826088BB089588B33C
S11300A08D7F88BB08958EEF8BBBCC9908C08FE3FE
S11300B09CE90197F1F700C0000087E30895CD990A
S11300C008C08FE39CE90197F1F700C0000088E3C2
S11300D00895CE9908C08FE39CE90197F1F700C019
S11300E0000089E30895CF9908C08FE39CE9019744
S11300F0F1F700C000008FE208958DEF8BBBCC991F
S113010008C08FE39CE90197F1F700C0000084E385
S11301100895CD9908C08FE39CE90197F1F700C0D9
S1130120000085E30895CE9908C08FE39CE9019708
S1130130F1F700C0000086E30895CF9908C08FE36B
S11301409CE90197F1F700C000008AE208958BEF63
S11301508BBBCC9908C08FE39CE90197F1F700C0F1
S1130160000081E30895CD9908C08FE39CE90197CD
S1130170F1F700C0000082E30895CE9908C08FE330
S11301809CE90197F1F700C0000083E30895CF993B
S113019008C08FE39CE90197F1F700C000008DE2ED
S11301A0089587EF8BBBCC9908C08FE39CE9019736
S11301B0F1F700C0000083E40895CD9908C08FE3EF
S11301C09CE90197F1F700C0000080E30895CE99FF
S11301D008C08FE39CE90197F1F700C0000085E4B3
S11301E00895CF9908C08FE39CE90197F1F700C007
S11301F000008EE20895089595B39F7D95BB95B355
S11302009F7B95BB982F907F98BB92B3906892BBCD
S11302102FEF39EF90E0215030409040E1F700C0DB
S1130220000092B39F7792BB8295807F88BB82B394
S1130230806882BB2FEF39EF80E02150304080404E
S1130240E1F700C0000082B38F7782BB089595B3B5
S1130250906295BB95B39F7B95BB982F907F98BB7D
S113026092B3906892BB2FEF39EF90E02150304069
S11302709040E1F700C0000092B39F7792BB829553
S1130280807F88BB82B3806882BB2FEF39EF80E028
S1130290215030408040E1F700C0000082B38F77E6
S11302A082BB08958FEF84BB81BB82B38F7782BBFF
S11302B083E30E94FC0082E30E94FC0088E20E9427
S11302C0FC008EE00E94FC0081E00E94FC002FEF05
S11302D089EF90E0215080409040E1F700C0000099
S11302E008950F931F93CF938C01C0E003C00E9425
S11302F02701CF5FF801EC0FF11D80818111F7CF49
S1130300CF911F910F9108951F920F920FB60F92E4
S113031011242F933F934F935F936F937F938F9306
S11303209F93AF93BF93EF93FF938CB18093AB00F4
S1130330813019F40E944B0012C0811103C00E9445
S11303404F000DC0823029F48FEF90E00E944900E5
S113035006C0833021F484E690E00E94490081E0E5
S113036090E09093A5008093A400FF91EF91BF913A
S1130370AF919F918F917F916F915F914F913F9139
S11303802F910F900FBE0F901F9018950E94DA02C4
S11303908FE08ABB0E945201789480E690E00E942C
S11303A071012FEF81EE94E0215080409040E1F7FD
S11303B000C0000081E00E94FC008EE00E94FC006E
S11303C02FEF81EE94E0215080409040E1F700C08F
S11303D000008EE690E00E94710180EC0E94FC0017
S11303E080EF8BBB89B3803F09F446C00E94530061
S11303F08093AA008F3231F08A3221F08D3211F0CD
S11304008334E9F481E00E94FC008EE00E94FC0049
S11304102FEF81EE94E0215080409040E1F700C03E
S113042000008BE790E00E9471012FEF81EE94E0D1
S1130430215080409040E1F700C00000BBCF8534DC
S1130440D9F02091A8003091A900A901440F551FAB
S1130450220F331F220F331F220F331F240F351F88
S1130460482F50E040535109240F351F3093A90001
S11304702093A8000E9427018091AA00853409F0E6
S1130480AFCF81E00E94FC008EE00E94FC002FEFC1
S113049081EE94E0215080409040E1F700C00000DC
S11304A089E890E00E9471012FEF81EE94E02150E1
S11304B080409040E1F700C0000080EC0E94FC0006
S11304C080EF8BBB89B3803F99F10E9453008093E6
S11304D0AC008F3221F08A3211F08D32E9F481E0E0
S11304E00E94FC008EE00E94FC002FEF81EE94E05D
S11304F0215080409040E1F700C000008BE790E07D
S11305000E9471012FEF81EE94E0215080409040D1
S1130510E1F700C00000B5CF853451F0282F30E05A
S1130520205331093093A7002093A6000E9427018D
S11305308091AC00853421F68534C9F58091A800FA
S11305400E94E8022FEF89E698E121508040904014
S1130550E1F700C000008091A6000E94E80281E05B
S11305600E94FC008EE00E94FC002FEF81EE94E0DC
S1130570215080409040E1F700C000008AE990E0FB
S11305800E9471012FEF81EE94E021508040904051
S1130590E1F700C0000081E00E94FC002FEF89E633
S11305A098E1215080409040E1F700C0000080E0D5
S11305B090E0089581B3826081BB81B38E7F81BB5B
S11305C010BC89E189B988E98AB98EE080BD0895B3
S11305D05D9BFECF8CB98FE19EE40197F1F700C0DB
S10B05E000000895F894FFCF18
S11305E8202048454C4C4F20555345522000454E39
S11305F8544552204C454E47544800494E56414CA8
S1130608494420494E50555400454E5445522051B2
S113061855414E54495459203A0020202020204462
S10706286F6E650088
S9030000FC
