S01D00005573657220496E70757420436F6E74726F6C6C65722E73726563F4
S11300000C942A000C9447000C9447000C9447006D
S11300100C9447000C9447000C9447000C94470040
S11300200C9447000C9447000C9447000C94470030
S11300300C9447000C9482010C9447000C944700E4
S11300400C9447000C9447000C9447000C94470010
S11300500C94470011241FBECFE5D8E0DEBFCDBF0E
S113006010E0A0E6B0E0ECECF5E002C005900D92E3
S1130070AA3AB107D9F720E0AAEAB0E001C01D927C
S1130080A33BB207E1F70E94B8010C94E4020C947C
S1130090000088B3826088BB089588B38D7F88BBD5
S11300A008958EEF8BBBCC9908C08FED9EE201972B
S11300B0F1F700C0000087E30895CD9908C08FEDE3
S11300C09EE20197F1F700C0000088E30895CE99FD
S11300D008C08FED9EE20197F1F700C0000089E3AC
S11300E00895CF9908C08FED9EE20197F1F700C003
S11300F000008FE208958DEF8BBBCC9908C08FED83
S11301009EE20197F1F700C0000084E30895CD99C1
S113011008C08FED9EE20197F1F700C0000085E36F
S11301200895CE9908C08FED9EE20197F1F700C0C3
S1130130000086E30895CF9908C08FED9EE20197F1
S1130140F1F700C000008AE208958BEF8BBBCC99D5
S113015008C08FED9EE20197F1F700C0000081E333
S11301600895CD9908C08FED9EE20197F1F700C084
S1130170000082E30895CE9908C08FED9EE20197B6
S1130180F1F700C0000083E30895CF9908C08FED14
S11301909EE20197F1F700C000008DE2089587EF19
S11301A08BBBCC9908C08FED9EE20197F1F700C09C
S11301B0000083E40895CD9908C08FED9EE2019775
S11301C0F1F700C0000080E30895CE9908C08FEDD8
S11301D09EE20197F1F700C0000085E40895CF99ED
S11301E008C08FED9EE20197F1F700C000008EE297
S11301F00895089595B39F7D95BB95B39F7B95BB5B
S1130200982F907F98BB92B3906892BB2FEF39EFF1
S113021090E0215030409040E1F700C0000092B3DC
S11302209F7792BB8295807F88BB82B3806882BBB4
S11302302FEF39EF80E0215030408040E1F700C0DB
S1130240000082B38F7782BB089595B3906295BB0B
S113025095B39F7B95BB982F907F98BB92B3906882
S113026092BB2FEF39EF90E0215030409040E1F7FE
S113027000C0000092B39F7792BB8295807F88BBB9
S113028082B3806882BB2FEF39EF80E02150304089
S11302908040E1F700C0000082B38F7782BB0895ED
S11302A08FEF84BB81BB82B38F7782BB83E30E94D1
S11302B0FA0082E30E94FA0088E20E94FA008EE0CB
S11302C00E94FA0081E00E94FA002FEF89EF90E08B
S11302D0215080409040E1F700C0000008950F9342
S11302E01F93CF938C01C0E003C00E942501CF5F10
S11302F0F801EC0FF11D80818111F7CFCF911F918F
S11303000F9108951F920F920FB60F9211242F93FD
S11303103F934F935F936F937F938F939F93AF9389
S1130320BF93EF93FF938CB18093B100082E000C20
S1130330990B8056904019F40E94490002C00E9413
S11303404D0081E090E09093B0008093AF00FF9166
S1130350EF91BF91AF919F918F917F916F915F9139
S11303604F913F912F910F900FBE0F901F901895B2
S11303708FE08ABB0E9450010E94CC02789486E6EA
S113038090E00E946F012FEF81EE94E021508040B5
S11303909040E1F700C0000081E00E94FA008EE086
S11303A00E94FA002FEF81EE94E0215080409040AB
S11303B0E1F700C0000084E790E00E946F0180EC48
S11303C00E94FA0080EF8BBB89B3803F09F446C0DA
S11303D00E9451008093AE008F3231F08A3221F0B6
S11303E08D3211F08334E9F481E00E94FA008EE04A
S11303F00E94FA002FEF81EE94E02150804090405B
S1130400E1F700C0000081E890E00E946F012FEF47
S113041081EE94E0215080409040E1F700C000005C
S1130420BBCF8534D9F02091AC003091AD00A90147
S1130430440F551F220F331F220F331F220F331F68
S1130440240F351F482F50E040535109240F351F06
S11304503093AD002093AC000E9425018091AE0042
S1130460853409F0AFCF81E00E94FA008EE00E944B
S1130470FA002FEF81EE94E0215080409040E1F7A4
S113048000C000008FE890E00E946F012FEF81EE22
S113049094E0215080409040E1F700C0000080ECDF
S11304A00E94FA0080EF8BBB89B3803F99F10E94D0
S11304B051008093B2008F3221F08A3211F08D32D4
S11304C0E9F481E00E94FA008EE00E94FA002FEF26
S11304D081EE94E0215080409040E1F700C000009C
S11304E081E890E00E946F012FEF81EE94E02150AB
S11304F080409040E1F700C00000B5CF853451F052
S1130500282F30E0205331093093AB002093AA0008
S11305100E9425018091B200853421F68534C9F505
S11305208091AC000E94DA022FEF81EE94E021501A
S113053080409040E1F700C000008091AA000E9432
S1130540DA0281E00E94FA008EE00E94FA002FEFA6
S113055081EE94E0215080409040E1F700C000001B
S113056080EA90E00E946F012FEF81EE94E0215029
S113057080409040E1F700C0000081E00E94FA0052
S11305802FEF89E698E1215080409040E1F700C0C8
S1130590000080E090E0089581B3826081BB81B364
S11305A08E7F81BB10BC89E189B988E98AB98EE064
S11305B080BD08955D9BFECF8CB98FE19EE40197C9
S10F05C0F1F700C000000895F894FFCF8C
S11305CC535441525400202048454C4C4F20555311
S11305DC45522000454E544552204C454E475448F4
S11305EC00494E56414C494420494E5055540045FF
S11305FC4E544552205155414E54495459203A00B9
S10D060C2020202020446F6E6500BA
S9030000FC
