:100000000C942A000C9472000C9447000C94470046
:100010000C9447000C9447000C9447000C94470044
:100020000C9447000C9447000C9447000C94AC00CF
:100030000C9447000C9447000C9447000C94470024
:100040000C9447000C9447000C9447000C94470014
:100050000C94470011241FBECFE5D8E0DEBFCDBF12
:1000600010E0A0E6B0E0E0E5F4E002C005900D92FB
:10007000AA37B107D9F720E0AAE7B0E001C01D9286
:10008000A238B207E1F70E947C010C9426020C947E
:1000900000008BB780648BBF85B7816085BF89B74F
:1000A000816089BF13BE089582B3806882BB85E0FA
:1000B0008A95F1F782B38F7782BB80917A00909115
:1000C0007B00892BD1F380917A0090917B00109274
:1000D0007B0010927A006AE370E00E94C901CB01B4
:1000E000019608951F920F920FB60F9211242F932D
:1000F0008F939F9380917E0090917F00019789F468
:1001000013BE22B780917C0090917D00820F911DDB
:1001100090937B0080937A0012BE10927F00109221
:100120007E0080917E0090917F00892B49F483B7F7
:10013000816083BF81E090E090937F0080937E0098
:1001400010927D0010927C009F918F912F910F90C3
:100150000FBE0F901F9018951F920F920FB60F921F
:1001600011248F939F9380917C0090917D009395B3
:1001700090937D0080937C009F918F910F900FBE94
:100180000F901F90189598B39F70282F207F922B67
:1001900098BB98B39E7F98BB98B3926098BB35E0AC
:1001A0003A95F1F7000098B39D7F98BBEFE1F3E03B
:1001B0003197F1F700C0000028B3F0E18F9FC00134
:1001C0001124922F9F70892B88BB88B3826088BBD3
:1001D00035E03A95F1F7000088B38D7F88BB8FE357
:1001E0009FE10197F1F700C00000089598B39F7058
:1001F000282F207F922B98BB98B3916098BB98B31F
:10020000926098BB35E03A95F1F7000098B39D7F76
:1002100098BBEFE1F3E03197F1F700C0000028B39D
:10022000F0E18F9FC0011124922F9F70892B88BB12
:1002300088B3826088BB35E03A95F1F7000088B357
:100240008D7F88BB8FE39FE10197F1F700C000002D
:1002500008958FEF87BB2FEF89EF90E0215080400A
:100260009040E1F700C0000082E00E94C30088E2F5
:100270000E94C3008CE00E94C30086E00E94C3007D
:1002800081E00E94C3008FE39FE10197F1F700C076
:10029000000008950F931F93CF93DF938C01C0E06C
:1002A000D0E003C00E94F6002196F801EC0FFD1F7C
:1002B00080818111F7CFDF91CF911F910F91089528
:1002C000CF93DF93EA01811108C0603130F4862FAB
:1002D0008F7080680E94C30009C0813039F460319A
:1002E00028F4862F8F70806C0E94C300CE010E947C
:1002F0004A01DF91CF910895CF93DF93CDB7DEB759
:1003000060970FB6F894DEBF0FBECDBF0E942901E3
:100310008BEF81BB2FEF80E792E02150804090402F
:10032000E1F700C000000E94490078940E94540048
:10033000909381008093800040E650E060E080E090
:100340000E9460014AE0BE016F5F7F4F8091800094
:10035000909181000E94F1014BE650E060E081E065
:100360000E946001AE014F5F5F4F6AE081E00E9432
:10037000600146E750E06DE081E00E9460012FEFF0
:1003800083EC99E0215080409040E1F700C00000EC
:10039000CDCF97FB072E16F4009407D077FD09D038
:1003A0000E94DD0107FC05D03EF4909581959F4F9A
:1003B0000895709561957F4F0895AA1BBB1B51E16D
:1003C00007C0AA1FBB1FA617B70710F0A61BB70BC5
:1003D000881F991F5A95A9F780959095BC01CD016A
:1003E0000895BB274A3031F4992322F4BDE2909559
:1003F00081959F4F0C94FD01BB27FB015527AA2730
:10040000880F991FAA1FA41710F0A41B83955051A1
:10041000B9F7A05DAA3308F0A95DA193009779F719
:10042000B111B1931192CB010C941602DC01FC01C5
:10043000672F71917723E1F7329704C07C916D9318
:1004400070836291AE17BF07C8F30895F894FFCF89
:10045000556C747261736F6E696300446973746183
:0A0460006E63653D2000636D00002F
:00000001FF
