:100000000C942A000C9434000C9434000C943400AA
:100010000C9434000C9434000C9434000C94340090
:100020000C9434000C9434000C9434000C94340080
:100030000C9434000C9434000C9434000C94340070
:100040000C9434000C9434000C9434000C94340060
:100050000C94340011241FBECFE5D8E0DEBFCDBF25
:100060000E9436000C9464000C9400000E9455001D
:1000700078948FE08ABB0E946000813021F48BB3BA
:1000800081608BBBF8CF811104C08BB382608BBBC6
:10009000F2CF823021F48BB384608BBBECCF833002
:1000A00051F78BB388608BBBE6CF81B3826081BB95
:1000B00010BC89E189B988E18AB98EE080BD0895D4
:0C00C0005F9BFECF8CB10895F894FFCF39
:00000001FF
