:100000000C942A000C943C000C943C000C943C0092
:100010000C943C000C943C000C943C000C943C0070
:100020000C943C000C943C000C943C000C943C0060
:100030000C943C000C943C000C943C000C943C0050
:100040000C943C000C943C000C943C000C943C0040
:100050000C943C0011241FBECFE5D8E0DEBFCDBF1D
:1000600020E0A0E6B0E001C01D92A136B207E1F7A2
:100070000E943E000C94B9000C94000060E875E208
:1000800080E090E00E9465008FE08ABB0E949300B0
:1000900080936000813019F48BB381608BBB8091B9
:1000A0006000811103C08BB382608BBB80916000C4
:1000B000823019F48BB384608BBB809160008330F5
:1000C00029F78BB388608BBBE1CF21B3226021BBC2
:1000D000DC01CB01880F991FAA1FBB1F880F991F36
:1000E000AA1FBB1F9C01AD01220F331F441F551FC8
:1000F000220F331F441F551F60E074E284EF90E02D
:100100000E949700DA01C9010197A109B109892F5D
:100110009A2FAB2FBB2780BD215029B988E18AB91E
:100120008EE080BD08955F9BFECF8CB10895A1E263
:100130001A2EAA1BBB1BFD010DC0AA1FBB1FEE1F61
:10014000FF1FA217B307E407F50720F0A21BB30BAC
:10015000E40BF50B661F771F881F991F1A9469F728
:1001600060957095809590959B01AC01BD01CF0184
:060170000895F894FFCF92
:00000001FF
