:100000000C942A000C9462010C9462010C9462011D
:100010000C9462010C9462010C9462010C946201D4
:100020000C9462010C9462010C9462010C946201C4
:100030000C9462010C9462010C9462010C946201B4
:100040000C9462010C9462010C9462010C946201A4
:100050000C94620111241FBECFE5D8E0DEBFCDBFF6
:0C0060000E9447010C943400F894FFCF7C
:10006C00CF92DF92EF92FF92CF93DF936A017B01E5
:10007C000197D9F1C0E0D0E086C083E085BB2FEFBB
:10008C0031EE94E0215030409040E1F700C0000088
:10009C0096E095BB2FEF31EE94E02150304090402C
:1000AC00E1F700C000009CE095BB2FEF31EE94E02F
:1000BC00215030409040E1F700C0000099E095BB22
:1000CC002FEF31EE94E0215030409040E1F700C02A
:1000DC00000085BB2FEF31EE84E021503040804092
:1000EC00E1F700C00000219602C0C0E0D0E0BE01E4
:1000FC000D2E000C880B990B0E94E800A7019601AD
:10010C000E94540188230CF4B8CF8FE39CE901972B
:10011C00F1F700C000004DC083E085BB9FEF21EEDE
:10012C0034E0915020403040E1F700C0000099E0ED
:10013C0095BB9FEF21EE34E0915020403040E1F729
:10014C0000C000009CE095BB9FEF21EE34E0915085
:10015C0020403040E1F700C0000096E095BB9FEFD7
:10016C0021EE34E0915020403040E1F700C0000017
:10017C0085BB8FEF91EE24E0815090402040E1F759
:10018C0000C000002196BE010D2E000C880B990BAF
:10019C000E94E8009B01AC01C701B6010E94590105
:1001AC0018160CF4B9CF8FE39CE90197F1F700C056
:1001BC000000DF91CF91FF90EF90DF90CF900895EA
:1001CC00E89409C097FB3EF49095809570956195E5
:1001DC007F4F8F4F9F4F9923A9F0F92F96E9BB279B
:1001EC009395F695879577956795B795F111F8CF17
:1001FC00FAF4BB0F11F460FF1BC06F5F7F4F8F4F82
:10020C009F4F16C0882311F096E911C0772321F077
:10021C009EE8872F762F05C0662371F096E8862F0F
:10022C0070E060E02AF09A95660F771F881FDAF766
:0A023C00880F9695879597F90895AD
:10024600990F0008550FAA0BE0E8FEEF16161706E1
:10025600E807F907C0F012161306E407F50798F049
:10026600621B730B840B950B39F40A2661F0232B62
:10027600242B252B21F408950A2609F4A140A695DE
:080286008FEF811D811D089519
:10028E000E945E0140E050E060E87FE381E090E094
:0A029E000E94360080E090E0089511
:0A02A8000E94230108F481E008958C
:0A02B2000E94230108F48FEF089565
:0802BC008FEF8ABB84BB08959B
:0402C4000C94000096
:00000001FF
